{
	"data": {
		"bytecode": {
			"linkReferences": {},
			"object": "608060405234801562000010575f80fd5b5060405162002caf38038062002caf833981810160405281019062000036919062000547565b5f5b81518110156200011c5760018282815181106200005a576200005962000596565b5b6020026020010151908060018154018082558091505060019003905f5260205f2090600602015f909190919091505f820151815f0190816200009d9190620007f1565b506020820151816001015560408201518160020155606082015181600301556080820151816004015f6101000a81548173ffffffffffffffffffffffffffffffffffffffff021916908373ffffffffffffffffffffffffffffffffffffffff16021790555060a082015181600501555050808060010191505062000038565b5050620008d5565b5f604051905090565b5f80fd5b5f80fd5b5f80fd5b5f601f19601f8301169050919050565b7f4e487b71000000000000000000000000000000000000000000000000000000005f52604160045260245ffd5b620001818262000139565b810181811067ffffffffffffffff82111715620001a357620001a262000149565b5b80604052505050565b5f620001b762000124565b9050620001c5828262000176565b919050565b5f67ffffffffffffffff821115620001e757620001e662000149565b5b602082029050602081019050919050565b5f80fd5b5f80fd5b5f80fd5b5f80fd5b5f67ffffffffffffffff82111562000225576200022462000149565b5b620002308262000139565b9050602081019050919050565b5f5b838110156200025c5780820151818401526020810190506200023f565b5f8484015250505050565b5f6200027d620002778462000208565b620001ac565b9050828152602081018484840111156200029c576200029b62000204565b5b620002a98482856200023d565b509392505050565b5f82601f830112620002c857620002c762000135565b5b8151620002da84826020860162000267565b91505092915050565b5f819050919050565b620002f781620002e3565b811462000302575f80fd5b50565b5f815190506200031581620002ec565b92915050565b5f73ffffffffffffffffffffffffffffffffffffffff82169050919050565b5f62000346826200031b565b9050919050565b62000358816200033a565b811462000363575f80fd5b50565b5f8151905062000376816200034d565b92915050565b5f819050919050565b62000390816200037c565b81146200039b575f80fd5b50565b5f81519050620003ae8162000385565b92915050565b5f60c08284031215620003cc57620003cb620001fc565b5b620003d860c0620001ac565b90505f82015167ffffffffffffffff811115620003fa57620003f962000200565b5b6200040884828501620002b1565b5f8301525060206200041d8482850162000305565b6020830152506040620004338482850162000305565b6040830152506060620004498482850162000305565b60608301525060806200045f8482850162000366565b60808301525060a062000475848285016200039e565b60a08301525092915050565b5f620004976200049184620001ca565b620001ac565b90508083825260208201905060208402830185811115620004bd57620004bc620001f8565b5b835b818110156200050b57805167ffffffffffffffff811115620004e657620004e562000135565b5b808601620004f58982620003b4565b85526020850194505050602081019050620004bf565b5050509392505050565b5f82601f8301126200052c576200052b62000135565b5b81516200053e84826020860162000481565b91505092915050565b5f602082840312156200055f576200055e6200012d565b5b5f82015167ffffffffffffffff8111156200057f576200057e62000131565b5b6200058d8482850162000515565b91505092915050565b7f4e487b71000000000000000000000000000000000000000000000000000000005f52603260045260245ffd5b5f81519050919050565b7f4e487b71000000000000000000000000000000000000000000000000000000005f52602260045260245ffd5b5f60028204905060018216806200061257607f821691505b602082108103620006285762000627620005cd565b5b50919050565b5f819050815f5260205f209050919050565b5f6020601f8301049050919050565b5f82821b905092915050565b5f600883026200068c7fffffffffffffffffffffffffffffffffffffffffffffffffffffffffffffffff826200064f565b6200069886836200064f565b95508019841693508086168417925050509392505050565b5f819050919050565b5f620006d9620006d3620006cd846200037c565b620006b0565b6200037c565b9050919050565b5f819050919050565b620006f483620006b9565b6200070c6200070382620006e0565b8484546200065b565b825550505050565b5f90565b6200072262000714565b6200072f818484620006e9565b505050565b5b8181101562000756576200074a5f8262000718565b60018101905062000735565b5050565b601f821115620007a5576200076f816200062e565b6200077a8462000640565b810160208510156200078a578190505b620007a2620007998562000640565b83018262000734565b50505b505050565b5f82821c905092915050565b5f620007c75f1984600802620007aa565b1980831691505092915050565b5f620007e18383620007b6565b9150826002028217905092915050565b620007fc82620005c3565b67ffffffffffffffff81111562000818576200081762000149565b5b620008248254620005fa565b620008318282856200075a565b5f60209050601f83116001811462000867575f841562000852578287015190505b6200085e8582620007d4565b865550620008cd565b601f19841662000877866200062e565b5f5b82811015620008a05784890151825560018201915060208501945060208101905062000879565b86831015620008c05784890151620008bc601f891682620007b6565b8355505b6001600288020188555050505b505050505050565b6123cc80620008e35f395ff3fe608060405234801562000010575f80fd5b506004361062000038575f3560e01c80636b64c769146200003c5780639fae5ec91462000048575b5f80fd5b6200004662000054565b005b6200005262000283565b005b5f5b60018054905081101562000280577f41eaae3d9373c5c43b0ff77a573b52a64595ad6de1916bf868db208280206201600182815481106200009c576200009b62000665565b5b905f5260205f2090600602015f0160018381548110620000c157620000c062000665565b5b905f5260205f2090600602016001015460018481548110620000e857620000e762000665565b5b905f5260205f209060060201600201546040516200010993929190620007bc565b60405180910390a15f6001828154811062000129576200012862000665565b5b905f5260205f20906006020160405162000143906200064b565b6200014f919062000a70565b604051809103905ff08015801562000169573d5f803e3d5ffd5b5090506001828154811062000183576200018262000665565b5b905f5260205f20906006020160025f8373ffffffffffffffffffffffffffffffffffffffff1673ffffffffffffffffffffffffffffffffffffffff1681526020019081526020015f205f8201815f019081620001e0919062000c87565b50600182015481600101556002820154816002015560038201548160030155600482015f9054906101000a900473ffffffffffffffffffffffffffffffffffffffff16816004015f6101000a81548173ffffffffffffffffffffffffffffffffffffffff021916908373ffffffffffffffffffffffffffffffffffffffff1602179055506005820154816005015590505050808060010191505062000056565b50565b5f5b60018054905081101562000323576200031560018281548110620002ae57620002ad62000665565b5b905f5260205f2090600602015f01620002ed60018481548110620002d757620002d662000665565b5b905f5260205f2090600602016001015462000326565b6040516020016200030092919062000ed1565b604051602081830303815290604052620003fb565b808060010191505062000285565b50565b60605f6001620003368462000498565b0190505f8167ffffffffffffffff81111562000357576200035662000aa9565b5b6040519080825280601f01601f1916602001820160405280156200038a5781602001600182028036833780820191505090505b5090505f82602001820190505b600115620003f0578080600190039150507f3031323334353637383961626364656600000000000000000000000000000000600a86061a8153600a8581620003e457620003e362000f1a565b5b0494505f850362000397575b819350505050919050565b620004958160405160240162000412919062000f97565b6040516020818303038152906040527f41304fac000000000000000000000000000000000000000000000000000000007bffffffffffffffffffffffffffffffffffffffffffffffffffffffff19166020820180517bffffffffffffffffffffffffffffffffffffffffffffffffffffffff838183161783525050505062000602565b50565b5f805f90507a184f03e93ff9f4daa797ed6e38ed64bf6a1f0100000000000000008310620004f8577a184f03e93ff9f4daa797ed6e38ed64bf6a1f0100000000000000008381620004ee57620004ed62000f1a565b5b0492506040810190505b6d04ee2d6d415b85acef8100000000831062000539576d04ee2d6d415b85acef810000000083816200052f576200052e62000f1a565b5b0492506020810190505b662386f26fc1000083106200056c57662386f26fc10000838162000562576200056162000f1a565b5b0492506010810190505b6305f5e100831062000599576305f5e10083816200058f576200058e62000f1a565b5b0492506008810190505b6127108310620005c2576127108381620005b857620005b762000f1a565b5b0492506004810190505b60648310620005e95760648381620005df57620005de62000f1a565b5b0492506002810190505b600a8310620005f9576001810190505b80915050919050565b6200061d8162000615620006206200063f565b63ffffffff16565b50565b5f6a636f6e736f6c652e6c6f6790505f80835160208501845afa505050565b62000659819050919050565b6113b08062000fe783390190565b6200066362000fb9565b565b7f4e487b71000000000000000000000000000000000000000000000000000000005f52603260045260245ffd5b7f4e487b71000000000000000000000000000000000000000000000000000000005f52602260045260245ffd5b5f6002820490506001821680620006d757607f821691505b602082108103620006ed57620006ec62000692565b5b50919050565b5f82825260208201905092915050565b5f819050815f5260205f209050919050565b5f81546200072381620006bf565b6200072f8186620006f3565b9450600182165f81146200074c5760018114620007635762000799565b60ff19831686528115156020028601935062000799565b6200076e8562000703565b5f5b83811015620007915781548189015260018201915060208101905062000770565b808801955050505b50505092915050565b5f819050919050565b620007b681620007a2565b82525050565b5f6060820190508181035f830152620007d6818662000715565b9050620007e76020830185620007ab565b620007f66040830184620007ab565b949350505050565b5f82825260208201905092915050565b5f81546200081c81620006bf565b620008288186620007fe565b9450600182165f81146200084557600181146200085c5762000892565b60ff19831686528115156020028601935062000892565b620008678562000703565b5f5b838110156200088a5781548189015260018201915060208101905062000869565b808801955050505b50505092915050565b5f815f1c9050919050565b5f819050919050565b5f620008c5620008bf836200089b565b620008a6565b9050919050565b620008d781620007a2565b82525050565b5f73ffffffffffffffffffffffffffffffffffffffff82169050919050565b5f620009126200090c836200089b565b620008dd565b9050919050565b5f73ffffffffffffffffffffffffffffffffffffffff82169050919050565b5f620009448262000919565b9050919050565b620009568162000938565b82525050565b5f819050919050565b5f6200097b62000975836200089b565b6200095c565b9050919050565b5f819050919050565b620009968162000982565b82525050565b5f60c083015f8084018583035f870152620009b883826200080e565b92505060018401549050620009cd81620008af565b620009dc6020870182620008cc565b5060028401549050620009ef81620008af565b620009fe6040870182620008cc565b506003840154905062000a1181620008af565b62000a206060870182620008cc565b506004840154905062000a3381620008fc565b62000a4260808701826200094b565b506005840154905062000a558162000965565b62000a6460a08701826200098b565b50819250505092915050565b5f6020820190508181035f83015262000a8a81846200099c565b905092915050565b5f8154905062000aa281620006bf565b9050919050565b7f4e487b71000000000000000000000000000000000000000000000000000000005f52604160045260245ffd5b5f6020601f8301049050919050565b5f82821b905092915050565b5f6008830262000b227fffffffffffffffffffffffffffffffffffffffffffffffffffffffffffffffff8262000ae5565b62000b2e868362000ae5565b95508019841693508086168417925050509392505050565b5f819050919050565b5f62000b6f62000b6962000b638462000982565b62000b46565b62000982565b9050919050565b5f819050919050565b62000b8a8362000b4f565b62000ba262000b998262000b76565b84845462000af1565b825550505050565b5f90565b62000bb862000baa565b62000bc581848462000b7f565b505050565b5b8181101562000bec5762000be05f8262000bae565b60018101905062000bcb565b5050565b601f82111562000c3b5762000c058162000703565b62000c108462000ad6565b8101602085101562000c20578190505b62000c3862000c2f8562000ad6565b83018262000bca565b50505b505050565b5f82821c905092915050565b5f62000c5d5f198460080262000c40565b1980831691505092915050565b5f62000c77838362000c4c565b9150826002028217905092915050565b81810362000c9757505062000d83565b62000ca28262000a92565b67ffffffffffffffff81111562000cbe5762000cbd62000aa9565b5b62000cca8254620006bf565b62000cd782828562000bf0565b5f601f83116001811462000d09575f841562000cf4578287015490505b62000d00858262000c6a565b86555062000d7c565b601f19841662000d198762000703565b965062000d268662000703565b5f5b8281101562000d4f5784890154825560018201915060018501945060208101905062000d28565b8683101562000d6f578489015462000d6b601f89168262000c4c565b8355505b6001600288020188555050505b5050505050505b565b7f4974656d206e616d65203d200000000000000000000000000000000000000000815250565b5f81905092915050565b5f815462000dc381620006bf565b62000dcf818662000dab565b9450600182165f811462000dec576001811462000e025762000e38565b60ff198316865281151582028601935062000e38565b62000e0d8562000703565b5f5b8381101562000e305781548189015260018201915060208101905062000e0f565b838801955050505b50505092915050565b7f2c20206974656d207374617274207072696365203a2000000000000000000000815250565b5f81519050919050565b5f5b8381101562000e9057808201518184015260208101905062000e73565b5f8484015250505050565b5f62000ea78262000e67565b62000eb3818562000dab565b935062000ec581856020860162000e71565b80840191505092915050565b5f62000edd8262000d85565b600c8201915062000eef828562000db5565b915062000efc8262000e41565b60168201915062000f0e828462000e9b565b91508190509392505050565b7f4e487b71000000000000000000000000000000000000000000000000000000005f52601260045260245ffd5b5f601f19601f8301169050919050565b5f62000f638262000e67565b62000f6f8185620006f3565b935062000f8181856020860162000e71565b62000f8c8162000f47565b840191505092915050565b5f6020820190508181035f83015262000fb1818462000f57565b905092915050565b7f4e487b71000000000000000000000000000000000000000000000000000000005f52605160045260245ffdfe608060405234801562000010575f80fd5b50604051620013b0380380620013b0833981810160405281019062000036919062000432565b3360015f6101000a81548173ffffffffffffffffffffffffffffffffffffffff021916908373ffffffffffffffffffffffffffffffffffffffff1602179055508060045f820151815f0190816200008e9190620006af565b506020820151816001015560408201518160020155606082015181600301556080820151816004015f6101000a81548173ffffffffffffffffffffffffffffffffffffffff021916908373ffffffffffffffffffffffffffffffffffffffff16021790555060a082015181600501559050505062000793565b5f604051905090565b5f80fd5b5f80fd5b5f80fd5b5f601f19601f8301169050919050565b7f4e487b71000000000000000000000000000000000000000000000000000000005f52604160045260245ffd5b62000164826200011c565b810181811067ffffffffffffffff821117156200018657620001856200012c565b5b80604052505050565b5f6200019a62000107565b9050620001a8828262000159565b919050565b5f80fd5b5f80fd5b5f80fd5b5f67ffffffffffffffff821115620001d657620001d56200012c565b5b620001e1826200011c565b9050602081019050919050565b5f5b838110156200020d578082015181840152602081019050620001f0565b5f8484015250505050565b5f6200022e6200022884620001b9565b6200018f565b9050828152602081018484840111156200024d576200024c620001b5565b5b6200025a848285620001ee565b509392505050565b5f82601f830112620002795762000278620001b1565b5b81516200028b84826020860162000218565b91505092915050565b5f819050919050565b620002a88162000294565b8114620002b3575f80fd5b50565b5f81519050620002c6816200029d565b92915050565b5f73ffffffffffffffffffffffffffffffffffffffff82169050919050565b5f620002f782620002cc565b9050919050565b6200030981620002eb565b811462000314575f80fd5b50565b5f815190506200032781620002fe565b92915050565b5f819050919050565b62000341816200032d565b81146200034c575f80fd5b50565b5f815190506200035f8162000336565b92915050565b5f60c082840312156200037d576200037c62000118565b5b6200038960c06200018f565b90505f82015167ffffffffffffffff811115620003ab57620003aa620001ad565b5b620003b98482850162000262565b5f830152506020620003ce84828501620002b6565b6020830152506040620003e484828501620002b6565b6040830152506060620003fa84828501620002b6565b6060830152506080620004108482850162000317565b60808301525060a062000426848285016200034f565b60a08301525092915050565b5f602082840312156200044a576200044962000110565b5b5f82015167ffffffffffffffff8111156200046a576200046962000114565b5b620004788482850162000365565b91505092915050565b5f81519050919050565b7f4e487b71000000000000000000000000000000000000000000000000000000005f52602260045260245ffd5b5f6002820490506001821680620004d057607f821691505b602082108103620004e657620004e56200048b565b5b50919050565b5f819050815f5260205f209050919050565b5f6020601f8301049050919050565b5f82821b905092915050565b5f600883026200054a7fffffffffffffffffffffffffffffffffffffffffffffffffffffffffffffffff826200050d565b6200055686836200050d565b95508019841693508086168417925050509392505050565b5f819050919050565b5f62000597620005916200058b846200032d565b6200056e565b6200032d565b9050919050565b5f819050919050565b620005b28362000577565b620005ca620005c1826200059e565b84845462000519565b825550505050565b5f90565b620005e0620005d2565b620005ed818484620005a7565b505050565b5b818110156200061457620006085f82620005d6565b600181019050620005f3565b5050565b601f82111562000663576200062d81620004ec565b6200063884620004fe565b8101602085101562000648578190505b620006606200065785620004fe565b830182620005f2565b50505b505050565b5f82821c905092915050565b5f620006855f198460080262000668565b1980831691505092915050565b5f6200069f838362000674565b9150826002028217905092915050565b620006ba8262000481565b67ffffffffffffffff811115620006d657620006d56200012c565b5b620006e28254620004b8565b620006ef82828562000618565b5f60209050601f83116001811462000725575f841562000710578287015190505b6200071c858262000692565b8655506200078b565b601f1984166200073586620004ec565b5f5b828110156200075e5784890151825560018201915060208501945060208101905062000737565b868310156200077e57848901516200077a601f89168262000674565b8355505b6001600288020188555050505b505050505050565b610c0f80620007a15f395ff3fe608060405260043610610049575f3560e01c806310782f8f1461004d5780631998aeef1461007757806391f9015714610081578063c2c042ca146100ac578063fe67a54b146100db575b5f80fd5b348015610058575f80fd5b506100616100e5565b60405161006e91906106ac565b60405180910390f35b61007f6100ea565b005b34801561008c575f80fd5b5061009561027e565b6040516100a392919061071c565b60405180910390f35b3480156100b7575f80fd5b506100c06102ae565b6040516100d2969594939291906107cd565b60405180910390f35b6100e361037c565b005b5f5481565b6004600501544210610131576040517f08c379a0000000000000000000000000000000000000000000000000000000008152600401610128906108a3565b60405180910390fd5b60046002015460026001015461014791906108ee565b3411610188576040517f08c379a000000000000000000000000000000000000000000000000000000000815260040161017f90610979565b60405180910390fd5b60025f015f9054906101000a900473ffffffffffffffffffffffffffffffffffffffff1673ffffffffffffffffffffffffffffffffffffffff166108fc60026001015490811502906040515f60405180830381858888f193505050501580156101f3573d5f803e3d5ffd5b50346002600101819055503360025f015f6101000a81548173ffffffffffffffffffffffffffffffffffffffff021916908373ffffffffffffffffffffffffffffffffffffffff1602179055507f2263adece708e4dd8a02fadbb42f30f747c60d074ef3ec28c2ff208ad625c8076002600101546040516102749190610997565b60405180910390a1565b6002805f015f9054906101000a900473ffffffffffffffffffffffffffffffffffffffff16908060010154905082565b6004805f0180546102be906109dd565b80601f01602080910402602001604051908101604052809291908181526020018280546102ea906109dd565b80156103355780601f1061030c57610100808354040283529160200191610335565b820191905f5260205f20905b81548152906001019060200180831161031857829003601f168201915b505050505090806001015490806002015490806003015490806004015f9054906101000a900473ffffffffffffffffffffffffffffffffffffffff16908060050154905086565b60015f9054906101000a900473ffffffffffffffffffffffffffffffffffffffff1673ffffffffffffffffffffffffffffffffffffffff163373ffffffffffffffffffffffffffffffffffffffff161461040b576040517f08c379a000000000000000000000000000000000000000000000000000000000815260040161040290610a7d565b60405180910390fd5b600460050154421015610453576040517f08c379a000000000000000000000000000000000000000000000000000000000815260040161044a90610ae5565b60405180910390fd5b5f6001905060046003015460026001015412156104ff5760025f015f9054906101000a900473ffffffffffffffffffffffffffffffffffffffff1673ffffffffffffffffffffffffffffffffffffffff166108fc60026001015490811502906040515f60405180830381858888f193505050501580156104d5573d5f803e3d5ffd5b506104f7604051806080016040528060488152602001610b92604891396105ad565b5f905061056c565b600480015f9054906101000a900473ffffffffffffffffffffffffffffffffffffffff1673ffffffffffffffffffffffffffffffffffffffff166108fc60026001015490811502906040515f60405180830381858888f1935050505015801561056a573d5f803e3d5ffd5b505b7f8aca94dc634f1e3cc99a82ed1a8b36272f826ce34503e5456680d4e92236c9d6816002600101546040516105a2929190610b1d565b60405180910390a150565b610643816040516024016105c19190610b44565b6040516020818303038152906040527f41304fac000000000000000000000000000000000000000000000000000000007bffffffffffffffffffffffffffffffffffffffffffffffffffffffff19166020820180517bffffffffffffffffffffffffffffffffffffffffffffffffffffffff8381831617835250505050610646565b50565b61065d8161065561066061067f565b63ffffffff16565b50565b5f6a636f6e736f6c652e6c6f6790505f80835160208501845afa505050565b61068a819050919050565b610692610b64565b565b5f819050919050565b6106a681610694565b82525050565b5f6020820190506106bf5f83018461069d565b92915050565b5f73ffffffffffffffffffffffffffffffffffffffff82169050919050565b5f6106ee826106c5565b9050919050565b6106fe816106e4565b82525050565b5f819050919050565b61071681610704565b82525050565b5f60408201905061072f5f8301856106f5565b61073c602083018461070d565b9392505050565b5f81519050919050565b5f82825260208201905092915050565b5f5b8381101561077a57808201518184015260208101905061075f565b5f8484015250505050565b5f601f19601f8301169050919050565b5f61079f82610743565b6107a9818561074d565b93506107b981856020860161075d565b6107c281610785565b840191505092915050565b5f60c0820190508181035f8301526107e58189610795565b90506107f4602083018861070d565b610801604083018761070d565b61080e606083018661070d565b61081b60808301856106f5565b61082860a083018461069d565b979650505050505050565b7f41756374696f6e20697320656e6465642c20796f752063616e277420626964205f8201527f616e796d6f726500000000000000000000000000000000000000000000000000602082015250565b5f61088d60278361074d565b915061089882610833565b604082019050919050565b5f6020820190508181035f8301526108ba81610881565b9050919050565b7f4e487b71000000000000000000000000000000000000000000000000000000005f52601160045260245ffd5b5f6108f882610704565b915061090383610704565b92508282019050828112155f8312168382125f841215161715610929576109286108c1565b5b92915050565b7f596f75206469646e27742062696420656e6f75676820210000000000000000005f82015250565b5f61096360178361074d565b915061096e8261092f565b602082019050919050565b5f6020820190508181035f83015261099081610957565b9050919050565b5f6020820190506109aa5f83018461070d565b92915050565b7f4e487b71000000000000000000000000000000000000000000000000000000005f52602260045260245ffd5b5f60028204905060018216806109f457607f821691505b602082108103610a0757610a066109b0565b5b50919050565b7f596f75277265206e6f74207468652061756374696f6e206f776e65722c20796f5f8201527f752063616e277420656e64206974000000000000000000000000000000000000602082015250565b5f610a67602e8361074d565b9150610a7282610a0d565b604082019050919050565b5f6020820190508181035f830152610a9481610a5b565b9050919050565b7f41756374696f6e206e6f742079657420656e64656400000000000000000000005f82015250565b5f610acf60158361074d565b9150610ada82610a9b565b602082019050919050565b5f6020820190508181035f830152610afc81610ac3565b9050919050565b5f8115159050919050565b610b1781610b03565b82525050565b5f604082019050610b305f830185610b0e565b610b3d602083018461070d565b9392505050565b5f6020820190508181035f830152610b5c8184610795565b905092915050565b7f4e487b71000000000000000000000000000000000000000000000000000000005f52605160045260245ffdfe5468652061756374696f6e20686173276e742072656163682074686520726573657276652070726963652c207468652062696464657220686173206265656e20726566756e646564a26469706673582212206ee575992e6d391d1c2ad7baf57aa3b2942d43ff53e782522f9c259503b33c1064736f6c63430008170033a2646970667358221220828349af4568ef736f9696553c63b00b646961a83578d613289bf1e2a4d7123b64736f6c63430008170033",
			"opcodes": "PUSH1 0x80 PUSH1 0x40 MSTORE CALLVALUE DUP1 ISZERO PUSH3 0x10 JUMPI PUSH0 DUP1 REVERT JUMPDEST POP PUSH1 0x40 MLOAD PUSH3 0x2CAF CODESIZE SUB DUP1 PUSH3 0x2CAF DUP4 CODECOPY DUP2 DUP2 ADD PUSH1 0x40 MSTORE DUP2 ADD SWAP1 PUSH3 0x36 SWAP2 SWAP1 PUSH3 0x547 JUMP JUMPDEST PUSH0 JUMPDEST DUP2 MLOAD DUP2 LT ISZERO PUSH3 0x11C JUMPI PUSH1 0x1 DUP3 DUP3 DUP2 MLOAD DUP2 LT PUSH3 0x5A JUMPI PUSH3 0x59 PUSH3 0x596 JUMP JUMPDEST JUMPDEST PUSH1 0x20 MUL PUSH1 0x20 ADD ADD MLOAD SWAP1 DUP1 PUSH1 0x1 DUP2 SLOAD ADD DUP1 DUP3 SSTORE DUP1 SWAP2 POP POP PUSH1 0x1 SWAP1 SUB SWAP1 PUSH0 MSTORE PUSH1 0x20 PUSH0 KECCAK256 SWAP1 PUSH1 0x6 MUL ADD PUSH0 SWAP1 SWAP2 SWAP1 SWAP2 SWAP1 SWAP2 POP PUSH0 DUP3 ADD MLOAD DUP2 PUSH0 ADD SWAP1 DUP2 PUSH3 0x9D SWAP2 SWAP1 PUSH3 0x7F1 JUMP JUMPDEST POP PUSH1 0x20 DUP3 ADD MLOAD DUP2 PUSH1 0x1 ADD SSTORE PUSH1 0x40 DUP3 ADD MLOAD DUP2 PUSH1 0x2 ADD SSTORE PUSH1 0x60 DUP3 ADD MLOAD DUP2 PUSH1 0x3 ADD SSTORE PUSH1 0x80 DUP3 ADD MLOAD DUP2 PUSH1 0x4 ADD PUSH0 PUSH2 0x100 EXP DUP2 SLOAD DUP2 PUSH20 0xFFFFFFFFFFFFFFFFFFFFFFFFFFFFFFFFFFFFFFFF MUL NOT AND SWAP1 DUP4 PUSH20 0xFFFFFFFFFFFFFFFFFFFFFFFFFFFFFFFFFFFFFFFF AND MUL OR SWAP1 SSTORE POP PUSH1 0xA0 DUP3 ADD MLOAD DUP2 PUSH1 0x5 ADD SSTORE POP POP DUP1 DUP1 PUSH1 0x1 ADD SWAP2 POP POP PUSH3 0x38 JUMP JUMPDEST POP POP PUSH3 0x8D5 JUMP JUMPDEST PUSH0 PUSH1 0x40 MLOAD SWAP1 POP SWAP1 JUMP JUMPDEST PUSH0 DUP1 REVERT JUMPDEST PUSH0 DUP1 REVERT JUMPDEST PUSH0 DUP1 REVERT JUMPDEST PUSH0 PUSH1 0x1F NOT PUSH1 0x1F DUP4 ADD AND SWAP1 POP SWAP2 SWAP1 POP JUMP JUMPDEST PUSH32 0x4E487B7100000000000000000000000000000000000000000000000000000000 PUSH0 MSTORE PUSH1 0x41 PUSH1 0x4 MSTORE PUSH1 0x24 PUSH0 REVERT JUMPDEST PUSH3 0x181 DUP3 PUSH3 0x139 JUMP JUMPDEST DUP2 ADD DUP2 DUP2 LT PUSH8 0xFFFFFFFFFFFFFFFF DUP3 GT OR ISZERO PUSH3 0x1A3 JUMPI PUSH3 0x1A2 PUSH3 0x149 JUMP JUMPDEST JUMPDEST DUP1 PUSH1 0x40 MSTORE POP POP POP JUMP JUMPDEST PUSH0 PUSH3 0x1B7 PUSH3 0x124 JUMP JUMPDEST SWAP1 POP PUSH3 0x1C5 DUP3 DUP3 PUSH3 0x176 JUMP JUMPDEST SWAP2 SWAP1 POP JUMP JUMPDEST PUSH0 PUSH8 0xFFFFFFFFFFFFFFFF DUP3 GT ISZERO PUSH3 0x1E7 JUMPI PUSH3 0x1E6 PUSH3 0x149 JUMP JUMPDEST JUMPDEST PUSH1 0x20 DUP3 MUL SWAP1 POP PUSH1 0x20 DUP2 ADD SWAP1 POP SWAP2 SWAP1 POP JUMP JUMPDEST PUSH0 DUP1 REVERT JUMPDEST PUSH0 DUP1 REVERT JUMPDEST PUSH0 DUP1 REVERT JUMPDEST PUSH0 DUP1 REVERT JUMPDEST PUSH0 PUSH8 0xFFFFFFFFFFFFFFFF DUP3 GT ISZERO PUSH3 0x225 JUMPI PUSH3 0x224 PUSH3 0x149 JUMP JUMPDEST JUMPDEST PUSH3 0x230 DUP3 PUSH3 0x139 JUMP JUMPDEST SWAP1 POP PUSH1 0x20 DUP2 ADD SWAP1 POP SWAP2 SWAP1 POP JUMP JUMPDEST PUSH0 JUMPDEST DUP4 DUP2 LT ISZERO PUSH3 0x25C JUMPI DUP1 DUP3 ADD MLOAD DUP2 DUP5 ADD MSTORE PUSH1 0x20 DUP2 ADD SWAP1 POP PUSH3 0x23F JUMP JUMPDEST PUSH0 DUP5 DUP5 ADD MSTORE POP POP POP POP JUMP JUMPDEST PUSH0 PUSH3 0x27D PUSH3 0x277 DUP5 PUSH3 0x208 JUMP JUMPDEST PUSH3 0x1AC JUMP JUMPDEST SWAP1 POP DUP3 DUP2 MSTORE PUSH1 0x20 DUP2 ADD DUP5 DUP5 DUP5 ADD GT ISZERO PUSH3 0x29C JUMPI PUSH3 0x29B PUSH3 0x204 JUMP JUMPDEST JUMPDEST PUSH3 0x2A9 DUP5 DUP3 DUP6 PUSH3 0x23D JUMP JUMPDEST POP SWAP4 SWAP3 POP POP POP JUMP JUMPDEST PUSH0 DUP3 PUSH1 0x1F DUP4 ADD SLT PUSH3 0x2C8 JUMPI PUSH3 0x2C7 PUSH3 0x135 JUMP JUMPDEST JUMPDEST DUP2 MLOAD PUSH3 0x2DA DUP5 DUP3 PUSH1 0x20 DUP7 ADD PUSH3 0x267 JUMP JUMPDEST SWAP2 POP POP SWAP3 SWAP2 POP POP JUMP JUMPDEST PUSH0 DUP2 SWAP1 POP SWAP2 SWAP1 POP JUMP JUMPDEST PUSH3 0x2F7 DUP2 PUSH3 0x2E3 JUMP JUMPDEST DUP2 EQ PUSH3 0x302 JUMPI PUSH0 DUP1 REVERT JUMPDEST POP JUMP JUMPDEST PUSH0 DUP2 MLOAD SWAP1 POP PUSH3 0x315 DUP2 PUSH3 0x2EC JUMP JUMPDEST SWAP3 SWAP2 POP POP JUMP JUMPDEST PUSH0 PUSH20 0xFFFFFFFFFFFFFFFFFFFFFFFFFFFFFFFFFFFFFFFF DUP3 AND SWAP1 POP SWAP2 SWAP1 POP JUMP JUMPDEST PUSH0 PUSH3 0x346 DUP3 PUSH3 0x31B JUMP JUMPDEST SWAP1 POP SWAP2 SWAP1 POP JUMP JUMPDEST PUSH3 0x358 DUP2 PUSH3 0x33A JUMP JUMPDEST DUP2 EQ PUSH3 0x363 JUMPI PUSH0 DUP1 REVERT JUMPDEST POP JUMP JUMPDEST PUSH0 DUP2 MLOAD SWAP1 POP PUSH3 0x376 DUP2 PUSH3 0x34D JUMP JUMPDEST SWAP3 SWAP2 POP POP JUMP JUMPDEST PUSH0 DUP2 SWAP1 POP SWAP2 SWAP1 POP JUMP JUMPDEST PUSH3 0x390 DUP2 PUSH3 0x37C JUMP JUMPDEST DUP2 EQ PUSH3 0x39B JUMPI PUSH0 DUP1 REVERT JUMPDEST POP JUMP JUMPDEST PUSH0 DUP2 MLOAD SWAP1 POP PUSH3 0x3AE DUP2 PUSH3 0x385 JUMP JUMPDEST SWAP3 SWAP2 POP POP JUMP JUMPDEST PUSH0 PUSH1 0xC0 DUP3 DUP5 SUB SLT ISZERO PUSH3 0x3CC JUMPI PUSH3 0x3CB PUSH3 0x1FC JUMP JUMPDEST JUMPDEST PUSH3 0x3D8 PUSH1 0xC0 PUSH3 0x1AC JUMP JUMPDEST SWAP1 POP PUSH0 DUP3 ADD MLOAD PUSH8 0xFFFFFFFFFFFFFFFF DUP2 GT ISZERO PUSH3 0x3FA JUMPI PUSH3 0x3F9 PUSH3 0x200 JUMP JUMPDEST JUMPDEST PUSH3 0x408 DUP5 DUP3 DUP6 ADD PUSH3 0x2B1 JUMP JUMPDEST PUSH0 DUP4 ADD MSTORE POP PUSH1 0x20 PUSH3 0x41D DUP5 DUP3 DUP6 ADD PUSH3 0x305 JUMP JUMPDEST PUSH1 0x20 DUP4 ADD MSTORE POP PUSH1 0x40 PUSH3 0x433 DUP5 DUP3 DUP6 ADD PUSH3 0x305 JUMP JUMPDEST PUSH1 0x40 DUP4 ADD MSTORE POP PUSH1 0x60 PUSH3 0x449 DUP5 DUP3 DUP6 ADD PUSH3 0x305 JUMP JUMPDEST PUSH1 0x60 DUP4 ADD MSTORE POP PUSH1 0x80 PUSH3 0x45F DUP5 DUP3 DUP6 ADD PUSH3 0x366 JUMP JUMPDEST PUSH1 0x80 DUP4 ADD MSTORE POP PUSH1 0xA0 PUSH3 0x475 DUP5 DUP3 DUP6 ADD PUSH3 0x39E JUMP JUMPDEST PUSH1 0xA0 DUP4 ADD MSTORE POP SWAP3 SWAP2 POP POP JUMP JUMPDEST PUSH0 PUSH3 0x497 PUSH3 0x491 DUP5 PUSH3 0x1CA JUMP JUMPDEST PUSH3 0x1AC JUMP JUMPDEST SWAP1 POP DUP1 DUP4 DUP3 MSTORE PUSH1 0x20 DUP3 ADD SWAP1 POP PUSH1 0x20 DUP5 MUL DUP4 ADD DUP6 DUP2 GT ISZERO PUSH3 0x4BD JUMPI PUSH3 0x4BC PUSH3 0x1F8 JUMP JUMPDEST JUMPDEST DUP4 JUMPDEST DUP2 DUP2 LT ISZERO PUSH3 0x50B JUMPI DUP1 MLOAD PUSH8 0xFFFFFFFFFFFFFFFF DUP2 GT ISZERO PUSH3 0x4E6 JUMPI PUSH3 0x4E5 PUSH3 0x135 JUMP JUMPDEST JUMPDEST DUP1 DUP7 ADD PUSH3 0x4F5 DUP10 DUP3 PUSH3 0x3B4 JUMP JUMPDEST DUP6 MSTORE PUSH1 0x20 DUP6 ADD SWAP5 POP POP POP PUSH1 0x20 DUP2 ADD SWAP1 POP PUSH3 0x4BF JUMP JUMPDEST POP POP POP SWAP4 SWAP3 POP POP POP JUMP JUMPDEST PUSH0 DUP3 PUSH1 0x1F DUP4 ADD SLT PUSH3 0x52C JUMPI PUSH3 0x52B PUSH3 0x135 JUMP JUMPDEST JUMPDEST DUP2 MLOAD PUSH3 0x53E DUP5 DUP3 PUSH1 0x20 DUP7 ADD PUSH3 0x481 JUMP JUMPDEST SWAP2 POP POP SWAP3 SWAP2 POP POP JUMP JUMPDEST PUSH0 PUSH1 0x20 DUP3 DUP5 SUB SLT ISZERO PUSH3 0x55F JUMPI PUSH3 0x55E PUSH3 0x12D JUMP JUMPDEST JUMPDEST PUSH0 DUP3 ADD MLOAD PUSH8 0xFFFFFFFFFFFFFFFF DUP2 GT ISZERO PUSH3 0x57F JUMPI PUSH3 0x57E PUSH3 0x131 JUMP JUMPDEST JUMPDEST PUSH3 0x58D DUP5 DUP3 DUP6 ADD PUSH3 0x515 JUMP JUMPDEST SWAP2 POP POP SWAP3 SWAP2 POP POP JUMP JUMPDEST PUSH32 0x4E487B7100000000000000000000000000000000000000000000000000000000 PUSH0 MSTORE PUSH1 0x32 PUSH1 0x4 MSTORE PUSH1 0x24 PUSH0 REVERT JUMPDEST PUSH0 DUP2 MLOAD SWAP1 POP SWAP2 SWAP1 POP JUMP JUMPDEST PUSH32 0x4E487B7100000000000000000000000000000000000000000000000000000000 PUSH0 MSTORE PUSH1 0x22 PUSH1 0x4 MSTORE PUSH1 0x24 PUSH0 REVERT JUMPDEST PUSH0 PUSH1 0x2 DUP3 DIV SWAP1 POP PUSH1 0x1 DUP3 AND DUP1 PUSH3 0x612 JUMPI PUSH1 0x7F DUP3 AND SWAP2 POP JUMPDEST PUSH1 0x20 DUP3 LT DUP2 SUB PUSH3 0x628 JUMPI PUSH3 0x627 PUSH3 0x5CD JUMP JUMPDEST JUMPDEST POP SWAP2 SWAP1 POP JUMP JUMPDEST PUSH0 DUP2 SWAP1 POP DUP2 PUSH0 MSTORE PUSH1 0x20 PUSH0 KECCAK256 SWAP1 POP SWAP2 SWAP1 POP JUMP JUMPDEST PUSH0 PUSH1 0x20 PUSH1 0x1F DUP4 ADD DIV SWAP1 POP SWAP2 SWAP1 POP JUMP JUMPDEST PUSH0 DUP3 DUP3 SHL SWAP1 POP SWAP3 SWAP2 POP POP JUMP JUMPDEST PUSH0 PUSH1 0x8 DUP4 MUL PUSH3 0x68C PUSH32 0xFFFFFFFFFFFFFFFFFFFFFFFFFFFFFFFFFFFFFFFFFFFFFFFFFFFFFFFFFFFFFFFF DUP3 PUSH3 0x64F JUMP JUMPDEST PUSH3 0x698 DUP7 DUP4 PUSH3 0x64F JUMP JUMPDEST SWAP6 POP DUP1 NOT DUP5 AND SWAP4 POP DUP1 DUP7 AND DUP5 OR SWAP3 POP POP POP SWAP4 SWAP3 POP POP POP JUMP JUMPDEST PUSH0 DUP2 SWAP1 POP SWAP2 SWAP1 POP JUMP JUMPDEST PUSH0 PUSH3 0x6D9 PUSH3 0x6D3 PUSH3 0x6CD DUP5 PUSH3 0x37C JUMP JUMPDEST PUSH3 0x6B0 JUMP JUMPDEST PUSH3 0x37C JUMP JUMPDEST SWAP1 POP SWAP2 SWAP1 POP JUMP JUMPDEST PUSH0 DUP2 SWAP1 POP SWAP2 SWAP1 POP JUMP JUMPDEST PUSH3 0x6F4 DUP4 PUSH3 0x6B9 JUMP JUMPDEST PUSH3 0x70C PUSH3 0x703 DUP3 PUSH3 0x6E0 JUMP JUMPDEST DUP5 DUP5 SLOAD PUSH3 0x65B JUMP JUMPDEST DUP3 SSTORE POP POP POP POP JUMP JUMPDEST PUSH0 SWAP1 JUMP JUMPDEST PUSH3 0x722 PUSH3 0x714 JUMP JUMPDEST PUSH3 0x72F DUP2 DUP5 DUP5 PUSH3 0x6E9 JUMP JUMPDEST POP POP POP JUMP JUMPDEST JUMPDEST DUP2 DUP2 LT ISZERO PUSH3 0x756 JUMPI PUSH3 0x74A PUSH0 DUP3 PUSH3 0x718 JUMP JUMPDEST PUSH1 0x1 DUP2 ADD SWAP1 POP PUSH3 0x735 JUMP JUMPDEST POP POP JUMP JUMPDEST PUSH1 0x1F DUP3 GT ISZERO PUSH3 0x7A5 JUMPI PUSH3 0x76F DUP2 PUSH3 0x62E JUMP JUMPDEST PUSH3 0x77A DUP5 PUSH3 0x640 JUMP JUMPDEST DUP2 ADD PUSH1 0x20 DUP6 LT ISZERO PUSH3 0x78A JUMPI DUP2 SWAP1 POP JUMPDEST PUSH3 0x7A2 PUSH3 0x799 DUP6 PUSH3 0x640 JUMP JUMPDEST DUP4 ADD DUP3 PUSH3 0x734 JUMP JUMPDEST POP POP JUMPDEST POP POP POP JUMP JUMPDEST PUSH0 DUP3 DUP3 SHR SWAP1 POP SWAP3 SWAP2 POP POP JUMP JUMPDEST PUSH0 PUSH3 0x7C7 PUSH0 NOT DUP5 PUSH1 0x8 MUL PUSH3 0x7AA JUMP JUMPDEST NOT DUP1 DUP4 AND SWAP2 POP POP SWAP3 SWAP2 POP POP JUMP JUMPDEST PUSH0 PUSH3 0x7E1 DUP4 DUP4 PUSH3 0x7B6 JUMP JUMPDEST SWAP2 POP DUP3 PUSH1 0x2 MUL DUP3 OR SWAP1 POP SWAP3 SWAP2 POP POP JUMP JUMPDEST PUSH3 0x7FC DUP3 PUSH3 0x5C3 JUMP JUMPDEST PUSH8 0xFFFFFFFFFFFFFFFF DUP2 GT ISZERO PUSH3 0x818 JUMPI PUSH3 0x817 PUSH3 0x149 JUMP JUMPDEST JUMPDEST PUSH3 0x824 DUP3 SLOAD PUSH3 0x5FA JUMP JUMPDEST PUSH3 0x831 DUP3 DUP3 DUP6 PUSH3 0x75A JUMP JUMPDEST PUSH0 PUSH1 0x20 SWAP1 POP PUSH1 0x1F DUP4 GT PUSH1 0x1 DUP2 EQ PUSH3 0x867 JUMPI PUSH0 DUP5 ISZERO PUSH3 0x852 JUMPI DUP3 DUP8 ADD MLOAD SWAP1 POP JUMPDEST PUSH3 0x85E DUP6 DUP3 PUSH3 0x7D4 JUMP JUMPDEST DUP7 SSTORE POP PUSH3 0x8CD JUMP JUMPDEST PUSH1 0x1F NOT DUP5 AND PUSH3 0x877 DUP7 PUSH3 0x62E JUMP JUMPDEST PUSH0 JUMPDEST DUP3 DUP2 LT ISZERO PUSH3 0x8A0 JUMPI DUP5 DUP10 ADD MLOAD DUP3 SSTORE PUSH1 0x1 DUP3 ADD SWAP2 POP PUSH1 0x20 DUP6 ADD SWAP5 POP PUSH1 0x20 DUP2 ADD SWAP1 POP PUSH3 0x879 JUMP JUMPDEST DUP7 DUP4 LT ISZERO PUSH3 0x8C0 JUMPI DUP5 DUP10 ADD MLOAD PUSH3 0x8BC PUSH1 0x1F DUP10 AND DUP3 PUSH3 0x7B6 JUMP JUMPDEST DUP4 SSTORE POP JUMPDEST PUSH1 0x1 PUSH1 0x2 DUP9 MUL ADD DUP9 SSTORE POP POP POP JUMPDEST POP POP POP POP POP POP JUMP JUMPDEST PUSH2 0x23CC DUP1 PUSH3 0x8E3 PUSH0 CODECOPY PUSH0 RETURN INVALID PUSH1 0x80 PUSH1 0x40 MSTORE CALLVALUE DUP1 ISZERO PUSH3 0x10 JUMPI PUSH0 DUP1 REVERT JUMPDEST POP PUSH1 0x4 CALLDATASIZE LT PUSH3 0x38 JUMPI PUSH0 CALLDATALOAD PUSH1 0xE0 SHR DUP1 PUSH4 0x6B64C769 EQ PUSH3 0x3C JUMPI DUP1 PUSH4 0x9FAE5EC9 EQ PUSH3 0x48 JUMPI JUMPDEST PUSH0 DUP1 REVERT JUMPDEST PUSH3 0x46 PUSH3 0x54 JUMP JUMPDEST STOP JUMPDEST PUSH3 0x52 PUSH3 0x283 JUMP JUMPDEST STOP JUMPDEST PUSH0 JUMPDEST PUSH1 0x1 DUP1 SLOAD SWAP1 POP DUP2 LT ISZERO PUSH3 0x280 JUMPI PUSH32 0x41EAAE3D9373C5C43B0FF77A573B52A64595AD6DE1916BF868DB208280206201 PUSH1 0x1 DUP3 DUP2 SLOAD DUP2 LT PUSH3 0x9C JUMPI PUSH3 0x9B PUSH3 0x665 JUMP JUMPDEST JUMPDEST SWAP1 PUSH0 MSTORE PUSH1 0x20 PUSH0 KECCAK256 SWAP1 PUSH1 0x6 MUL ADD PUSH0 ADD PUSH1 0x1 DUP4 DUP2 SLOAD DUP2 LT PUSH3 0xC1 JUMPI PUSH3 0xC0 PUSH3 0x665 JUMP JUMPDEST JUMPDEST SWAP1 PUSH0 MSTORE PUSH1 0x20 PUSH0 KECCAK256 SWAP1 PUSH1 0x6 MUL ADD PUSH1 0x1 ADD SLOAD PUSH1 0x1 DUP5 DUP2 SLOAD DUP2 LT PUSH3 0xE8 JUMPI PUSH3 0xE7 PUSH3 0x665 JUMP JUMPDEST JUMPDEST SWAP1 PUSH0 MSTORE PUSH1 0x20 PUSH0 KECCAK256 SWAP1 PUSH1 0x6 MUL ADD PUSH1 0x2 ADD SLOAD PUSH1 0x40 MLOAD PUSH3 0x109 SWAP4 SWAP3 SWAP2 SWAP1 PUSH3 0x7BC JUMP JUMPDEST PUSH1 0x40 MLOAD DUP1 SWAP2 SUB SWAP1 LOG1 PUSH0 PUSH1 0x1 DUP3 DUP2 SLOAD DUP2 LT PUSH3 0x129 JUMPI PUSH3 0x128 PUSH3 0x665 JUMP JUMPDEST JUMPDEST SWAP1 PUSH0 MSTORE PUSH1 0x20 PUSH0 KECCAK256 SWAP1 PUSH1 0x6 MUL ADD PUSH1 0x40 MLOAD PUSH3 0x143 SWAP1 PUSH3 0x64B JUMP JUMPDEST PUSH3 0x14F SWAP2 SWAP1 PUSH3 0xA70 JUMP JUMPDEST PUSH1 0x40 MLOAD DUP1 SWAP2 SUB SWAP1 PUSH0 CREATE DUP1 ISZERO DUP1 ISZERO PUSH3 0x169 JUMPI RETURNDATASIZE PUSH0 DUP1 RETURNDATACOPY RETURNDATASIZE PUSH0 REVERT JUMPDEST POP SWAP1 POP PUSH1 0x1 DUP3 DUP2 SLOAD DUP2 LT PUSH3 0x183 JUMPI PUSH3 0x182 PUSH3 0x665 JUMP JUMPDEST JUMPDEST SWAP1 PUSH0 MSTORE PUSH1 0x20 PUSH0 KECCAK256 SWAP1 PUSH1 0x6 MUL ADD PUSH1 0x2 PUSH0 DUP4 PUSH20 0xFFFFFFFFFFFFFFFFFFFFFFFFFFFFFFFFFFFFFFFF AND PUSH20 0xFFFFFFFFFFFFFFFFFFFFFFFFFFFFFFFFFFFFFFFF AND DUP2 MSTORE PUSH1 0x20 ADD SWAP1 DUP2 MSTORE PUSH1 0x20 ADD PUSH0 KECCAK256 PUSH0 DUP3 ADD DUP2 PUSH0 ADD SWAP1 DUP2 PUSH3 0x1E0 SWAP2 SWAP1 PUSH3 0xC87 JUMP JUMPDEST POP PUSH1 0x1 DUP3 ADD SLOAD DUP2 PUSH1 0x1 ADD SSTORE PUSH1 0x2 DUP3 ADD SLOAD DUP2 PUSH1 0x2 ADD SSTORE PUSH1 0x3 DUP3 ADD SLOAD DUP2 PUSH1 0x3 ADD SSTORE PUSH1 0x4 DUP3 ADD PUSH0 SWAP1 SLOAD SWAP1 PUSH2 0x100 EXP SWAP1 DIV PUSH20 0xFFFFFFFFFFFFFFFFFFFFFFFFFFFFFFFFFFFFFFFF AND DUP2 PUSH1 0x4 ADD PUSH0 PUSH2 0x100 EXP DUP2 SLOAD DUP2 PUSH20 0xFFFFFFFFFFFFFFFFFFFFFFFFFFFFFFFFFFFFFFFF MUL NOT AND SWAP1 DUP4 PUSH20 0xFFFFFFFFFFFFFFFFFFFFFFFFFFFFFFFFFFFFFFFF AND MUL OR SWAP1 SSTORE POP PUSH1 0x5 DUP3 ADD SLOAD DUP2 PUSH1 0x5 ADD SSTORE SWAP1 POP POP POP DUP1 DUP1 PUSH1 0x1 ADD SWAP2 POP POP PUSH3 0x56 JUMP JUMPDEST POP JUMP JUMPDEST PUSH0 JUMPDEST PUSH1 0x1 DUP1 SLOAD SWAP1 POP DUP2 LT ISZERO PUSH3 0x323 JUMPI PUSH3 0x315 PUSH1 0x1 DUP3 DUP2 SLOAD DUP2 LT PUSH3 0x2AE JUMPI PUSH3 0x2AD PUSH3 0x665 JUMP JUMPDEST JUMPDEST SWAP1 PUSH0 MSTORE PUSH1 0x20 PUSH0 KECCAK256 SWAP1 PUSH1 0x6 MUL ADD PUSH0 ADD PUSH3 0x2ED PUSH1 0x1 DUP5 DUP2 SLOAD DUP2 LT PUSH3 0x2D7 JUMPI PUSH3 0x2D6 PUSH3 0x665 JUMP JUMPDEST JUMPDEST SWAP1 PUSH0 MSTORE PUSH1 0x20 PUSH0 KECCAK256 SWAP1 PUSH1 0x6 MUL ADD PUSH1 0x1 ADD SLOAD PUSH3 0x326 JUMP JUMPDEST PUSH1 0x40 MLOAD PUSH1 0x20 ADD PUSH3 0x300 SWAP3 SWAP2 SWAP1 PUSH3 0xED1 JUMP JUMPDEST PUSH1 0x40 MLOAD PUSH1 0x20 DUP2 DUP4 SUB SUB DUP2 MSTORE SWAP1 PUSH1 0x40 MSTORE PUSH3 0x3FB JUMP JUMPDEST DUP1 DUP1 PUSH1 0x1 ADD SWAP2 POP POP PUSH3 0x285 JUMP JUMPDEST POP JUMP JUMPDEST PUSH1 0x60 PUSH0 PUSH1 0x1 PUSH3 0x336 DUP5 PUSH3 0x498 JUMP JUMPDEST ADD SWAP1 POP PUSH0 DUP2 PUSH8 0xFFFFFFFFFFFFFFFF DUP2 GT ISZERO PUSH3 0x357 JUMPI PUSH3 0x356 PUSH3 0xAA9 JUMP JUMPDEST JUMPDEST PUSH1 0x40 MLOAD SWAP1 DUP1 DUP3 MSTORE DUP1 PUSH1 0x1F ADD PUSH1 0x1F NOT AND PUSH1 0x20 ADD DUP3 ADD PUSH1 0x40 MSTORE DUP1 ISZERO PUSH3 0x38A JUMPI DUP2 PUSH1 0x20 ADD PUSH1 0x1 DUP3 MUL DUP1 CALLDATASIZE DUP4 CALLDATACOPY DUP1 DUP3 ADD SWAP2 POP POP SWAP1 POP JUMPDEST POP SWAP1 POP PUSH0 DUP3 PUSH1 0x20 ADD DUP3 ADD SWAP1 POP JUMPDEST PUSH1 0x1 ISZERO PUSH3 0x3F0 JUMPI DUP1 DUP1 PUSH1 0x1 SWAP1 SUB SWAP2 POP POP PUSH32 0x3031323334353637383961626364656600000000000000000000000000000000 PUSH1 0xA DUP7 MOD BYTE DUP2 MSTORE8 PUSH1 0xA DUP6 DUP2 PUSH3 0x3E4 JUMPI PUSH3 0x3E3 PUSH3 0xF1A JUMP JUMPDEST JUMPDEST DIV SWAP5 POP PUSH0 DUP6 SUB PUSH3 0x397 JUMPI JUMPDEST DUP2 SWAP4 POP POP POP POP SWAP2 SWAP1 POP JUMP JUMPDEST PUSH3 0x495 DUP2 PUSH1 0x40 MLOAD PUSH1 0x24 ADD PUSH3 0x412 SWAP2 SWAP1 PUSH3 0xF97 JUMP JUMPDEST PUSH1 0x40 MLOAD PUSH1 0x20 DUP2 DUP4 SUB SUB DUP2 MSTORE SWAP1 PUSH1 0x40 MSTORE PUSH32 0x41304FAC00000000000000000000000000000000000000000000000000000000 PUSH28 0xFFFFFFFFFFFFFFFFFFFFFFFFFFFFFFFFFFFFFFFFFFFFFFFFFFFFFFFF NOT AND PUSH1 0x20 DUP3 ADD DUP1 MLOAD PUSH28 0xFFFFFFFFFFFFFFFFFFFFFFFFFFFFFFFFFFFFFFFFFFFFFFFFFFFFFFFF DUP4 DUP2 DUP4 AND OR DUP4 MSTORE POP POP POP POP PUSH3 0x602 JUMP JUMPDEST POP JUMP JUMPDEST PUSH0 DUP1 PUSH0 SWAP1 POP PUSH27 0x184F03E93FF9F4DAA797ED6E38ED64BF6A1F010000000000000000 DUP4 LT PUSH3 0x4F8 JUMPI PUSH27 0x184F03E93FF9F4DAA797ED6E38ED64BF6A1F010000000000000000 DUP4 DUP2 PUSH3 0x4EE JUMPI PUSH3 0x4ED PUSH3 0xF1A JUMP JUMPDEST JUMPDEST DIV SWAP3 POP PUSH1 0x40 DUP2 ADD SWAP1 POP JUMPDEST PUSH14 0x4EE2D6D415B85ACEF8100000000 DUP4 LT PUSH3 0x539 JUMPI PUSH14 0x4EE2D6D415B85ACEF8100000000 DUP4 DUP2 PUSH3 0x52F JUMPI PUSH3 0x52E PUSH3 0xF1A JUMP JUMPDEST JUMPDEST DIV SWAP3 POP PUSH1 0x20 DUP2 ADD SWAP1 POP JUMPDEST PUSH7 0x2386F26FC10000 DUP4 LT PUSH3 0x56C JUMPI PUSH7 0x2386F26FC10000 DUP4 DUP2 PUSH3 0x562 JUMPI PUSH3 0x561 PUSH3 0xF1A JUMP JUMPDEST JUMPDEST DIV SWAP3 POP PUSH1 0x10 DUP2 ADD SWAP1 POP JUMPDEST PUSH4 0x5F5E100 DUP4 LT PUSH3 0x599 JUMPI PUSH4 0x5F5E100 DUP4 DUP2 PUSH3 0x58F JUMPI PUSH3 0x58E PUSH3 0xF1A JUMP JUMPDEST JUMPDEST DIV SWAP3 POP PUSH1 0x8 DUP2 ADD SWAP1 POP JUMPDEST PUSH2 0x2710 DUP4 LT PUSH3 0x5C2 JUMPI PUSH2 0x2710 DUP4 DUP2 PUSH3 0x5B8 JUMPI PUSH3 0x5B7 PUSH3 0xF1A JUMP JUMPDEST JUMPDEST DIV SWAP3 POP PUSH1 0x4 DUP2 ADD SWAP1 POP JUMPDEST PUSH1 0x64 DUP4 LT PUSH3 0x5E9 JUMPI PUSH1 0x64 DUP4 DUP2 PUSH3 0x5DF JUMPI PUSH3 0x5DE PUSH3 0xF1A JUMP JUMPDEST JUMPDEST DIV SWAP3 POP PUSH1 0x2 DUP2 ADD SWAP1 POP JUMPDEST PUSH1 0xA DUP4 LT PUSH3 0x5F9 JUMPI PUSH1 0x1 DUP2 ADD SWAP1 POP JUMPDEST DUP1 SWAP2 POP POP SWAP2 SWAP1 POP JUMP JUMPDEST PUSH3 0x61D DUP2 PUSH3 0x615 PUSH3 0x620 PUSH3 0x63F JUMP JUMPDEST PUSH4 0xFFFFFFFF AND JUMP JUMPDEST POP JUMP JUMPDEST PUSH0 PUSH11 0x636F6E736F6C652E6C6F67 SWAP1 POP PUSH0 DUP1 DUP4 MLOAD PUSH1 0x20 DUP6 ADD DUP5 GAS STATICCALL POP POP POP JUMP JUMPDEST PUSH3 0x659 DUP2 SWAP1 POP SWAP2 SWAP1 POP JUMP JUMPDEST PUSH2 0x13B0 DUP1 PUSH3 0xFE7 DUP4 CODECOPY ADD SWAP1 JUMP JUMPDEST PUSH3 0x663 PUSH3 0xFB9 JUMP JUMPDEST JUMP JUMPDEST PUSH32 0x4E487B7100000000000000000000000000000000000000000000000000000000 PUSH0 MSTORE PUSH1 0x32 PUSH1 0x4 MSTORE PUSH1 0x24 PUSH0 REVERT JUMPDEST PUSH32 0x4E487B7100000000000000000000000000000000000000000000000000000000 PUSH0 MSTORE PUSH1 0x22 PUSH1 0x4 MSTORE PUSH1 0x24 PUSH0 REVERT JUMPDEST PUSH0 PUSH1 0x2 DUP3 DIV SWAP1 POP PUSH1 0x1 DUP3 AND DUP1 PUSH3 0x6D7 JUMPI PUSH1 0x7F DUP3 AND SWAP2 POP JUMPDEST PUSH1 0x20 DUP3 LT DUP2 SUB PUSH3 0x6ED JUMPI PUSH3 0x6EC PUSH3 0x692 JUMP JUMPDEST JUMPDEST POP SWAP2 SWAP1 POP JUMP JUMPDEST PUSH0 DUP3 DUP3 MSTORE PUSH1 0x20 DUP3 ADD SWAP1 POP SWAP3 SWAP2 POP POP JUMP JUMPDEST PUSH0 DUP2 SWAP1 POP DUP2 PUSH0 MSTORE PUSH1 0x20 PUSH0 KECCAK256 SWAP1 POP SWAP2 SWAP1 POP JUMP JUMPDEST PUSH0 DUP2 SLOAD PUSH3 0x723 DUP2 PUSH3 0x6BF JUMP JUMPDEST PUSH3 0x72F DUP2 DUP7 PUSH3 0x6F3 JUMP JUMPDEST SWAP5 POP PUSH1 0x1 DUP3 AND PUSH0 DUP2 EQ PUSH3 0x74C JUMPI PUSH1 0x1 DUP2 EQ PUSH3 0x763 JUMPI PUSH3 0x799 JUMP JUMPDEST PUSH1 0xFF NOT DUP4 AND DUP7 MSTORE DUP2 ISZERO ISZERO PUSH1 0x20 MUL DUP7 ADD SWAP4 POP PUSH3 0x799 JUMP JUMPDEST PUSH3 0x76E DUP6 PUSH3 0x703 JUMP JUMPDEST PUSH0 JUMPDEST DUP4 DUP2 LT ISZERO PUSH3 0x791 JUMPI DUP2 SLOAD DUP2 DUP10 ADD MSTORE PUSH1 0x1 DUP3 ADD SWAP2 POP PUSH1 0x20 DUP2 ADD SWAP1 POP PUSH3 0x770 JUMP JUMPDEST DUP1 DUP9 ADD SWAP6 POP POP POP JUMPDEST POP POP POP SWAP3 SWAP2 POP POP JUMP JUMPDEST PUSH0 DUP2 SWAP1 POP SWAP2 SWAP1 POP JUMP JUMPDEST PUSH3 0x7B6 DUP2 PUSH3 0x7A2 JUMP JUMPDEST DUP3 MSTORE POP POP JUMP JUMPDEST PUSH0 PUSH1 0x60 DUP3 ADD SWAP1 POP DUP2 DUP2 SUB PUSH0 DUP4 ADD MSTORE PUSH3 0x7D6 DUP2 DUP7 PUSH3 0x715 JUMP JUMPDEST SWAP1 POP PUSH3 0x7E7 PUSH1 0x20 DUP4 ADD DUP6 PUSH3 0x7AB JUMP JUMPDEST PUSH3 0x7F6 PUSH1 0x40 DUP4 ADD DUP5 PUSH3 0x7AB JUMP JUMPDEST SWAP5 SWAP4 POP POP POP POP JUMP JUMPDEST PUSH0 DUP3 DUP3 MSTORE PUSH1 0x20 DUP3 ADD SWAP1 POP SWAP3 SWAP2 POP POP JUMP JUMPDEST PUSH0 DUP2 SLOAD PUSH3 0x81C DUP2 PUSH3 0x6BF JUMP JUMPDEST PUSH3 0x828 DUP2 DUP7 PUSH3 0x7FE JUMP JUMPDEST SWAP5 POP PUSH1 0x1 DUP3 AND PUSH0 DUP2 EQ PUSH3 0x845 JUMPI PUSH1 0x1 DUP2 EQ PUSH3 0x85C JUMPI PUSH3 0x892 JUMP JUMPDEST PUSH1 0xFF NOT DUP4 AND DUP7 MSTORE DUP2 ISZERO ISZERO PUSH1 0x20 MUL DUP7 ADD SWAP4 POP PUSH3 0x892 JUMP JUMPDEST PUSH3 0x867 DUP6 PUSH3 0x703 JUMP JUMPDEST PUSH0 JUMPDEST DUP4 DUP2 LT ISZERO PUSH3 0x88A JUMPI DUP2 SLOAD DUP2 DUP10 ADD MSTORE PUSH1 0x1 DUP3 ADD SWAP2 POP PUSH1 0x20 DUP2 ADD SWAP1 POP PUSH3 0x869 JUMP JUMPDEST DUP1 DUP9 ADD SWAP6 POP POP POP JUMPDEST POP POP POP SWAP3 SWAP2 POP POP JUMP JUMPDEST PUSH0 DUP2 PUSH0 SHR SWAP1 POP SWAP2 SWAP1 POP JUMP JUMPDEST PUSH0 DUP2 SWAP1 POP SWAP2 SWAP1 POP JUMP JUMPDEST PUSH0 PUSH3 0x8C5 PUSH3 0x8BF DUP4 PUSH3 0x89B JUMP JUMPDEST PUSH3 0x8A6 JUMP JUMPDEST SWAP1 POP SWAP2 SWAP1 POP JUMP JUMPDEST PUSH3 0x8D7 DUP2 PUSH3 0x7A2 JUMP JUMPDEST DUP3 MSTORE POP POP JUMP JUMPDEST PUSH0 PUSH20 0xFFFFFFFFFFFFFFFFFFFFFFFFFFFFFFFFFFFFFFFF DUP3 AND SWAP1 POP SWAP2 SWAP1 POP JUMP JUMPDEST PUSH0 PUSH3 0x912 PUSH3 0x90C DUP4 PUSH3 0x89B JUMP JUMPDEST PUSH3 0x8DD JUMP JUMPDEST SWAP1 POP SWAP2 SWAP1 POP JUMP JUMPDEST PUSH0 PUSH20 0xFFFFFFFFFFFFFFFFFFFFFFFFFFFFFFFFFFFFFFFF DUP3 AND SWAP1 POP SWAP2 SWAP1 POP JUMP JUMPDEST PUSH0 PUSH3 0x944 DUP3 PUSH3 0x919 JUMP JUMPDEST SWAP1 POP SWAP2 SWAP1 POP JUMP JUMPDEST PUSH3 0x956 DUP2 PUSH3 0x938 JUMP JUMPDEST DUP3 MSTORE POP POP JUMP JUMPDEST PUSH0 DUP2 SWAP1 POP SWAP2 SWAP1 POP JUMP JUMPDEST PUSH0 PUSH3 0x97B PUSH3 0x975 DUP4 PUSH3 0x89B JUMP JUMPDEST PUSH3 0x95C JUMP JUMPDEST SWAP1 POP SWAP2 SWAP1 POP JUMP JUMPDEST PUSH0 DUP2 SWAP1 POP SWAP2 SWAP1 POP JUMP JUMPDEST PUSH3 0x996 DUP2 PUSH3 0x982 JUMP JUMPDEST DUP3 MSTORE POP POP JUMP JUMPDEST PUSH0 PUSH1 0xC0 DUP4 ADD PUSH0 DUP1 DUP5 ADD DUP6 DUP4 SUB PUSH0 DUP8 ADD MSTORE PUSH3 0x9B8 DUP4 DUP3 PUSH3 0x80E JUMP JUMPDEST SWAP3 POP POP PUSH1 0x1 DUP5 ADD SLOAD SWAP1 POP PUSH3 0x9CD DUP2 PUSH3 0x8AF JUMP JUMPDEST PUSH3 0x9DC PUSH1 0x20 DUP8 ADD DUP3 PUSH3 0x8CC JUMP JUMPDEST POP PUSH1 0x2 DUP5 ADD SLOAD SWAP1 POP PUSH3 0x9EF DUP2 PUSH3 0x8AF JUMP JUMPDEST PUSH3 0x9FE PUSH1 0x40 DUP8 ADD DUP3 PUSH3 0x8CC JUMP JUMPDEST POP PUSH1 0x3 DUP5 ADD SLOAD SWAP1 POP PUSH3 0xA11 DUP2 PUSH3 0x8AF JUMP JUMPDEST PUSH3 0xA20 PUSH1 0x60 DUP8 ADD DUP3 PUSH3 0x8CC JUMP JUMPDEST POP PUSH1 0x4 DUP5 ADD SLOAD SWAP1 POP PUSH3 0xA33 DUP2 PUSH3 0x8FC JUMP JUMPDEST PUSH3 0xA42 PUSH1 0x80 DUP8 ADD DUP3 PUSH3 0x94B JUMP JUMPDEST POP PUSH1 0x5 DUP5 ADD SLOAD SWAP1 POP PUSH3 0xA55 DUP2 PUSH3 0x965 JUMP JUMPDEST PUSH3 0xA64 PUSH1 0xA0 DUP8 ADD DUP3 PUSH3 0x98B JUMP JUMPDEST POP DUP2 SWAP3 POP POP POP SWAP3 SWAP2 POP POP JUMP JUMPDEST PUSH0 PUSH1 0x20 DUP3 ADD SWAP1 POP DUP2 DUP2 SUB PUSH0 DUP4 ADD MSTORE PUSH3 0xA8A DUP2 DUP5 PUSH3 0x99C JUMP JUMPDEST SWAP1 POP SWAP3 SWAP2 POP POP JUMP JUMPDEST PUSH0 DUP2 SLOAD SWAP1 POP PUSH3 0xAA2 DUP2 PUSH3 0x6BF JUMP JUMPDEST SWAP1 POP SWAP2 SWAP1 POP JUMP JUMPDEST PUSH32 0x4E487B7100000000000000000000000000000000000000000000000000000000 PUSH0 MSTORE PUSH1 0x41 PUSH1 0x4 MSTORE PUSH1 0x24 PUSH0 REVERT JUMPDEST PUSH0 PUSH1 0x20 PUSH1 0x1F DUP4 ADD DIV SWAP1 POP SWAP2 SWAP1 POP JUMP JUMPDEST PUSH0 DUP3 DUP3 SHL SWAP1 POP SWAP3 SWAP2 POP POP JUMP JUMPDEST PUSH0 PUSH1 0x8 DUP4 MUL PUSH3 0xB22 PUSH32 0xFFFFFFFFFFFFFFFFFFFFFFFFFFFFFFFFFFFFFFFFFFFFFFFFFFFFFFFFFFFFFFFF DUP3 PUSH3 0xAE5 JUMP JUMPDEST PUSH3 0xB2E DUP7 DUP4 PUSH3 0xAE5 JUMP JUMPDEST SWAP6 POP DUP1 NOT DUP5 AND SWAP4 POP DUP1 DUP7 AND DUP5 OR SWAP3 POP POP POP SWAP4 SWAP3 POP POP POP JUMP JUMPDEST PUSH0 DUP2 SWAP1 POP SWAP2 SWAP1 POP JUMP JUMPDEST PUSH0 PUSH3 0xB6F PUSH3 0xB69 PUSH3 0xB63 DUP5 PUSH3 0x982 JUMP JUMPDEST PUSH3 0xB46 JUMP JUMPDEST PUSH3 0x982 JUMP JUMPDEST SWAP1 POP SWAP2 SWAP1 POP JUMP JUMPDEST PUSH0 DUP2 SWAP1 POP SWAP2 SWAP1 POP JUMP JUMPDEST PUSH3 0xB8A DUP4 PUSH3 0xB4F JUMP JUMPDEST PUSH3 0xBA2 PUSH3 0xB99 DUP3 PUSH3 0xB76 JUMP JUMPDEST DUP5 DUP5 SLOAD PUSH3 0xAF1 JUMP JUMPDEST DUP3 SSTORE POP POP POP POP JUMP JUMPDEST PUSH0 SWAP1 JUMP JUMPDEST PUSH3 0xBB8 PUSH3 0xBAA JUMP JUMPDEST PUSH3 0xBC5 DUP2 DUP5 DUP5 PUSH3 0xB7F JUMP JUMPDEST POP POP POP JUMP JUMPDEST JUMPDEST DUP2 DUP2 LT ISZERO PUSH3 0xBEC JUMPI PUSH3 0xBE0 PUSH0 DUP3 PUSH3 0xBAE JUMP JUMPDEST PUSH1 0x1 DUP2 ADD SWAP1 POP PUSH3 0xBCB JUMP JUMPDEST POP POP JUMP JUMPDEST PUSH1 0x1F DUP3 GT ISZERO PUSH3 0xC3B JUMPI PUSH3 0xC05 DUP2 PUSH3 0x703 JUMP JUMPDEST PUSH3 0xC10 DUP5 PUSH3 0xAD6 JUMP JUMPDEST DUP2 ADD PUSH1 0x20 DUP6 LT ISZERO PUSH3 0xC20 JUMPI DUP2 SWAP1 POP JUMPDEST PUSH3 0xC38 PUSH3 0xC2F DUP6 PUSH3 0xAD6 JUMP JUMPDEST DUP4 ADD DUP3 PUSH3 0xBCA JUMP JUMPDEST POP POP JUMPDEST POP POP POP JUMP JUMPDEST PUSH0 DUP3 DUP3 SHR SWAP1 POP SWAP3 SWAP2 POP POP JUMP JUMPDEST PUSH0 PUSH3 0xC5D PUSH0 NOT DUP5 PUSH1 0x8 MUL PUSH3 0xC40 JUMP JUMPDEST NOT DUP1 DUP4 AND SWAP2 POP POP SWAP3 SWAP2 POP POP JUMP JUMPDEST PUSH0 PUSH3 0xC77 DUP4 DUP4 PUSH3 0xC4C JUMP JUMPDEST SWAP2 POP DUP3 PUSH1 0x2 MUL DUP3 OR SWAP1 POP SWAP3 SWAP2 POP POP JUMP JUMPDEST DUP2 DUP2 SUB PUSH3 0xC97 JUMPI POP POP PUSH3 0xD83 JUMP JUMPDEST PUSH3 0xCA2 DUP3 PUSH3 0xA92 JUMP JUMPDEST PUSH8 0xFFFFFFFFFFFFFFFF DUP2 GT ISZERO PUSH3 0xCBE JUMPI PUSH3 0xCBD PUSH3 0xAA9 JUMP JUMPDEST JUMPDEST PUSH3 0xCCA DUP3 SLOAD PUSH3 0x6BF JUMP JUMPDEST PUSH3 0xCD7 DUP3 DUP3 DUP6 PUSH3 0xBF0 JUMP JUMPDEST PUSH0 PUSH1 0x1F DUP4 GT PUSH1 0x1 DUP2 EQ PUSH3 0xD09 JUMPI PUSH0 DUP5 ISZERO PUSH3 0xCF4 JUMPI DUP3 DUP8 ADD SLOAD SWAP1 POP JUMPDEST PUSH3 0xD00 DUP6 DUP3 PUSH3 0xC6A JUMP JUMPDEST DUP7 SSTORE POP PUSH3 0xD7C JUMP JUMPDEST PUSH1 0x1F NOT DUP5 AND PUSH3 0xD19 DUP8 PUSH3 0x703 JUMP JUMPDEST SWAP7 POP PUSH3 0xD26 DUP7 PUSH3 0x703 JUMP JUMPDEST PUSH0 JUMPDEST DUP3 DUP2 LT ISZERO PUSH3 0xD4F JUMPI DUP5 DUP10 ADD SLOAD DUP3 SSTORE PUSH1 0x1 DUP3 ADD SWAP2 POP PUSH1 0x1 DUP6 ADD SWAP5 POP PUSH1 0x20 DUP2 ADD SWAP1 POP PUSH3 0xD28 JUMP JUMPDEST DUP7 DUP4 LT ISZERO PUSH3 0xD6F JUMPI DUP5 DUP10 ADD SLOAD PUSH3 0xD6B PUSH1 0x1F DUP10 AND DUP3 PUSH3 0xC4C JUMP JUMPDEST DUP4 SSTORE POP JUMPDEST PUSH1 0x1 PUSH1 0x2 DUP9 MUL ADD DUP9 SSTORE POP POP POP JUMPDEST POP POP POP POP POP POP JUMPDEST JUMP JUMPDEST PUSH32 0x4974656D206E616D65203D200000000000000000000000000000000000000000 DUP2 MSTORE POP JUMP JUMPDEST PUSH0 DUP2 SWAP1 POP SWAP3 SWAP2 POP POP JUMP JUMPDEST PUSH0 DUP2 SLOAD PUSH3 0xDC3 DUP2 PUSH3 0x6BF JUMP JUMPDEST PUSH3 0xDCF DUP2 DUP7 PUSH3 0xDAB JUMP JUMPDEST SWAP5 POP PUSH1 0x1 DUP3 AND PUSH0 DUP2 EQ PUSH3 0xDEC JUMPI PUSH1 0x1 DUP2 EQ PUSH3 0xE02 JUMPI PUSH3 0xE38 JUMP JUMPDEST PUSH1 0xFF NOT DUP4 AND DUP7 MSTORE DUP2 ISZERO ISZERO DUP3 MUL DUP7 ADD SWAP4 POP PUSH3 0xE38 JUMP JUMPDEST PUSH3 0xE0D DUP6 PUSH3 0x703 JUMP JUMPDEST PUSH0 JUMPDEST DUP4 DUP2 LT ISZERO PUSH3 0xE30 JUMPI DUP2 SLOAD DUP2 DUP10 ADD MSTORE PUSH1 0x1 DUP3 ADD SWAP2 POP PUSH1 0x20 DUP2 ADD SWAP1 POP PUSH3 0xE0F JUMP JUMPDEST DUP4 DUP9 ADD SWAP6 POP POP POP JUMPDEST POP POP POP SWAP3 SWAP2 POP POP JUMP JUMPDEST PUSH32 0x2C20206974656D207374617274207072696365203A2000000000000000000000 DUP2 MSTORE POP JUMP JUMPDEST PUSH0 DUP2 MLOAD SWAP1 POP SWAP2 SWAP1 POP JUMP JUMPDEST PUSH0 JUMPDEST DUP4 DUP2 LT ISZERO PUSH3 0xE90 JUMPI DUP1 DUP3 ADD MLOAD DUP2 DUP5 ADD MSTORE PUSH1 0x20 DUP2 ADD SWAP1 POP PUSH3 0xE73 JUMP JUMPDEST PUSH0 DUP5 DUP5 ADD MSTORE POP POP POP POP JUMP JUMPDEST PUSH0 PUSH3 0xEA7 DUP3 PUSH3 0xE67 JUMP JUMPDEST PUSH3 0xEB3 DUP2 DUP6 PUSH3 0xDAB JUMP JUMPDEST SWAP4 POP PUSH3 0xEC5 DUP2 DUP6 PUSH1 0x20 DUP7 ADD PUSH3 0xE71 JUMP JUMPDEST DUP1 DUP5 ADD SWAP2 POP POP SWAP3 SWAP2 POP POP JUMP JUMPDEST PUSH0 PUSH3 0xEDD DUP3 PUSH3 0xD85 JUMP JUMPDEST PUSH1 0xC DUP3 ADD SWAP2 POP PUSH3 0xEEF DUP3 DUP6 PUSH3 0xDB5 JUMP JUMPDEST SWAP2 POP PUSH3 0xEFC DUP3 PUSH3 0xE41 JUMP JUMPDEST PUSH1 0x16 DUP3 ADD SWAP2 POP PUSH3 0xF0E DUP3 DUP5 PUSH3 0xE9B JUMP JUMPDEST SWAP2 POP DUP2 SWAP1 POP SWAP4 SWAP3 POP POP POP JUMP JUMPDEST PUSH32 0x4E487B7100000000000000000000000000000000000000000000000000000000 PUSH0 MSTORE PUSH1 0x12 PUSH1 0x4 MSTORE PUSH1 0x24 PUSH0 REVERT JUMPDEST PUSH0 PUSH1 0x1F NOT PUSH1 0x1F DUP4 ADD AND SWAP1 POP SWAP2 SWAP1 POP JUMP JUMPDEST PUSH0 PUSH3 0xF63 DUP3 PUSH3 0xE67 JUMP JUMPDEST PUSH3 0xF6F DUP2 DUP6 PUSH3 0x6F3 JUMP JUMPDEST SWAP4 POP PUSH3 0xF81 DUP2 DUP6 PUSH1 0x20 DUP7 ADD PUSH3 0xE71 JUMP JUMPDEST PUSH3 0xF8C DUP2 PUSH3 0xF47 JUMP JUMPDEST DUP5 ADD SWAP2 POP POP SWAP3 SWAP2 POP POP JUMP JUMPDEST PUSH0 PUSH1 0x20 DUP3 ADD SWAP1 POP DUP2 DUP2 SUB PUSH0 DUP4 ADD MSTORE PUSH3 0xFB1 DUP2 DUP5 PUSH3 0xF57 JUMP JUMPDEST SWAP1 POP SWAP3 SWAP2 POP POP JUMP JUMPDEST PUSH32 0x4E487B7100000000000000000000000000000000000000000000000000000000 PUSH0 MSTORE PUSH1 0x51 PUSH1 0x4 MSTORE PUSH1 0x24 PUSH0 REVERT INVALID PUSH1 0x80 PUSH1 0x40 MSTORE CALLVALUE DUP1 ISZERO PUSH3 0x10 JUMPI PUSH0 DUP1 REVERT JUMPDEST POP PUSH1 0x40 MLOAD PUSH3 0x13B0 CODESIZE SUB DUP1 PUSH3 0x13B0 DUP4 CODECOPY DUP2 DUP2 ADD PUSH1 0x40 MSTORE DUP2 ADD SWAP1 PUSH3 0x36 SWAP2 SWAP1 PUSH3 0x432 JUMP JUMPDEST CALLER PUSH1 0x1 PUSH0 PUSH2 0x100 EXP DUP2 SLOAD DUP2 PUSH20 0xFFFFFFFFFFFFFFFFFFFFFFFFFFFFFFFFFFFFFFFF MUL NOT AND SWAP1 DUP4 PUSH20 0xFFFFFFFFFFFFFFFFFFFFFFFFFFFFFFFFFFFFFFFF AND MUL OR SWAP1 SSTORE POP DUP1 PUSH1 0x4 PUSH0 DUP3 ADD MLOAD DUP2 PUSH0 ADD SWAP1 DUP2 PUSH3 0x8E SWAP2 SWAP1 PUSH3 0x6AF JUMP JUMPDEST POP PUSH1 0x20 DUP3 ADD MLOAD DUP2 PUSH1 0x1 ADD SSTORE PUSH1 0x40 DUP3 ADD MLOAD DUP2 PUSH1 0x2 ADD SSTORE PUSH1 0x60 DUP3 ADD MLOAD DUP2 PUSH1 0x3 ADD SSTORE PUSH1 0x80 DUP3 ADD MLOAD DUP2 PUSH1 0x4 ADD PUSH0 PUSH2 0x100 EXP DUP2 SLOAD DUP2 PUSH20 0xFFFFFFFFFFFFFFFFFFFFFFFFFFFFFFFFFFFFFFFF MUL NOT AND SWAP1 DUP4 PUSH20 0xFFFFFFFFFFFFFFFFFFFFFFFFFFFFFFFFFFFFFFFF AND MUL OR SWAP1 SSTORE POP PUSH1 0xA0 DUP3 ADD MLOAD DUP2 PUSH1 0x5 ADD SSTORE SWAP1 POP POP POP PUSH3 0x793 JUMP JUMPDEST PUSH0 PUSH1 0x40 MLOAD SWAP1 POP SWAP1 JUMP JUMPDEST PUSH0 DUP1 REVERT JUMPDEST PUSH0 DUP1 REVERT JUMPDEST PUSH0 DUP1 REVERT JUMPDEST PUSH0 PUSH1 0x1F NOT PUSH1 0x1F DUP4 ADD AND SWAP1 POP SWAP2 SWAP1 POP JUMP JUMPDEST PUSH32 0x4E487B7100000000000000000000000000000000000000000000000000000000 PUSH0 MSTORE PUSH1 0x41 PUSH1 0x4 MSTORE PUSH1 0x24 PUSH0 REVERT JUMPDEST PUSH3 0x164 DUP3 PUSH3 0x11C JUMP JUMPDEST DUP2 ADD DUP2 DUP2 LT PUSH8 0xFFFFFFFFFFFFFFFF DUP3 GT OR ISZERO PUSH3 0x186 JUMPI PUSH3 0x185 PUSH3 0x12C JUMP JUMPDEST JUMPDEST DUP1 PUSH1 0x40 MSTORE POP POP POP JUMP JUMPDEST PUSH0 PUSH3 0x19A PUSH3 0x107 JUMP JUMPDEST SWAP1 POP PUSH3 0x1A8 DUP3 DUP3 PUSH3 0x159 JUMP JUMPDEST SWAP2 SWAP1 POP JUMP JUMPDEST PUSH0 DUP1 REVERT JUMPDEST PUSH0 DUP1 REVERT JUMPDEST PUSH0 DUP1 REVERT JUMPDEST PUSH0 PUSH8 0xFFFFFFFFFFFFFFFF DUP3 GT ISZERO PUSH3 0x1D6 JUMPI PUSH3 0x1D5 PUSH3 0x12C JUMP JUMPDEST JUMPDEST PUSH3 0x1E1 DUP3 PUSH3 0x11C JUMP JUMPDEST SWAP1 POP PUSH1 0x20 DUP2 ADD SWAP1 POP SWAP2 SWAP1 POP JUMP JUMPDEST PUSH0 JUMPDEST DUP4 DUP2 LT ISZERO PUSH3 0x20D JUMPI DUP1 DUP3 ADD MLOAD DUP2 DUP5 ADD MSTORE PUSH1 0x20 DUP2 ADD SWAP1 POP PUSH3 0x1F0 JUMP JUMPDEST PUSH0 DUP5 DUP5 ADD MSTORE POP POP POP POP JUMP JUMPDEST PUSH0 PUSH3 0x22E PUSH3 0x228 DUP5 PUSH3 0x1B9 JUMP JUMPDEST PUSH3 0x18F JUMP JUMPDEST SWAP1 POP DUP3 DUP2 MSTORE PUSH1 0x20 DUP2 ADD DUP5 DUP5 DUP5 ADD GT ISZERO PUSH3 0x24D JUMPI PUSH3 0x24C PUSH3 0x1B5 JUMP JUMPDEST JUMPDEST PUSH3 0x25A DUP5 DUP3 DUP6 PUSH3 0x1EE JUMP JUMPDEST POP SWAP4 SWAP3 POP POP POP JUMP JUMPDEST PUSH0 DUP3 PUSH1 0x1F DUP4 ADD SLT PUSH3 0x279 JUMPI PUSH3 0x278 PUSH3 0x1B1 JUMP JUMPDEST JUMPDEST DUP2 MLOAD PUSH3 0x28B DUP5 DUP3 PUSH1 0x20 DUP7 ADD PUSH3 0x218 JUMP JUMPDEST SWAP2 POP POP SWAP3 SWAP2 POP POP JUMP JUMPDEST PUSH0 DUP2 SWAP1 POP SWAP2 SWAP1 POP JUMP JUMPDEST PUSH3 0x2A8 DUP2 PUSH3 0x294 JUMP JUMPDEST DUP2 EQ PUSH3 0x2B3 JUMPI PUSH0 DUP1 REVERT JUMPDEST POP JUMP JUMPDEST PUSH0 DUP2 MLOAD SWAP1 POP PUSH3 0x2C6 DUP2 PUSH3 0x29D JUMP JUMPDEST SWAP3 SWAP2 POP POP JUMP JUMPDEST PUSH0 PUSH20 0xFFFFFFFFFFFFFFFFFFFFFFFFFFFFFFFFFFFFFFFF DUP3 AND SWAP1 POP SWAP2 SWAP1 POP JUMP JUMPDEST PUSH0 PUSH3 0x2F7 DUP3 PUSH3 0x2CC JUMP JUMPDEST SWAP1 POP SWAP2 SWAP1 POP JUMP JUMPDEST PUSH3 0x309 DUP2 PUSH3 0x2EB JUMP JUMPDEST DUP2 EQ PUSH3 0x314 JUMPI PUSH0 DUP1 REVERT JUMPDEST POP JUMP JUMPDEST PUSH0 DUP2 MLOAD SWAP1 POP PUSH3 0x327 DUP2 PUSH3 0x2FE JUMP JUMPDEST SWAP3 SWAP2 POP POP JUMP JUMPDEST PUSH0 DUP2 SWAP1 POP SWAP2 SWAP1 POP JUMP JUMPDEST PUSH3 0x341 DUP2 PUSH3 0x32D JUMP JUMPDEST DUP2 EQ PUSH3 0x34C JUMPI PUSH0 DUP1 REVERT JUMPDEST POP JUMP JUMPDEST PUSH0 DUP2 MLOAD SWAP1 POP PUSH3 0x35F DUP2 PUSH3 0x336 JUMP JUMPDEST SWAP3 SWAP2 POP POP JUMP JUMPDEST PUSH0 PUSH1 0xC0 DUP3 DUP5 SUB SLT ISZERO PUSH3 0x37D JUMPI PUSH3 0x37C PUSH3 0x118 JUMP JUMPDEST JUMPDEST PUSH3 0x389 PUSH1 0xC0 PUSH3 0x18F JUMP JUMPDEST SWAP1 POP PUSH0 DUP3 ADD MLOAD PUSH8 0xFFFFFFFFFFFFFFFF DUP2 GT ISZERO PUSH3 0x3AB JUMPI PUSH3 0x3AA PUSH3 0x1AD JUMP JUMPDEST JUMPDEST PUSH3 0x3B9 DUP5 DUP3 DUP6 ADD PUSH3 0x262 JUMP JUMPDEST PUSH0 DUP4 ADD MSTORE POP PUSH1 0x20 PUSH3 0x3CE DUP5 DUP3 DUP6 ADD PUSH3 0x2B6 JUMP JUMPDEST PUSH1 0x20 DUP4 ADD MSTORE POP PUSH1 0x40 PUSH3 0x3E4 DUP5 DUP3 DUP6 ADD PUSH3 0x2B6 JUMP JUMPDEST PUSH1 0x40 DUP4 ADD MSTORE POP PUSH1 0x60 PUSH3 0x3FA DUP5 DUP3 DUP6 ADD PUSH3 0x2B6 JUMP JUMPDEST PUSH1 0x60 DUP4 ADD MSTORE POP PUSH1 0x80 PUSH3 0x410 DUP5 DUP3 DUP6 ADD PUSH3 0x317 JUMP JUMPDEST PUSH1 0x80 DUP4 ADD MSTORE POP PUSH1 0xA0 PUSH3 0x426 DUP5 DUP3 DUP6 ADD PUSH3 0x34F JUMP JUMPDEST PUSH1 0xA0 DUP4 ADD MSTORE POP SWAP3 SWAP2 POP POP JUMP JUMPDEST PUSH0 PUSH1 0x20 DUP3 DUP5 SUB SLT ISZERO PUSH3 0x44A JUMPI PUSH3 0x449 PUSH3 0x110 JUMP JUMPDEST JUMPDEST PUSH0 DUP3 ADD MLOAD PUSH8 0xFFFFFFFFFFFFFFFF DUP2 GT ISZERO PUSH3 0x46A JUMPI PUSH3 0x469 PUSH3 0x114 JUMP JUMPDEST JUMPDEST PUSH3 0x478 DUP5 DUP3 DUP6 ADD PUSH3 0x365 JUMP JUMPDEST SWAP2 POP POP SWAP3 SWAP2 POP POP JUMP JUMPDEST PUSH0 DUP2 MLOAD SWAP1 POP SWAP2 SWAP1 POP JUMP JUMPDEST PUSH32 0x4E487B7100000000000000000000000000000000000000000000000000000000 PUSH0 MSTORE PUSH1 0x22 PUSH1 0x4 MSTORE PUSH1 0x24 PUSH0 REVERT JUMPDEST PUSH0 PUSH1 0x2 DUP3 DIV SWAP1 POP PUSH1 0x1 DUP3 AND DUP1 PUSH3 0x4D0 JUMPI PUSH1 0x7F DUP3 AND SWAP2 POP JUMPDEST PUSH1 0x20 DUP3 LT DUP2 SUB PUSH3 0x4E6 JUMPI PUSH3 0x4E5 PUSH3 0x48B JUMP JUMPDEST JUMPDEST POP SWAP2 SWAP1 POP JUMP JUMPDEST PUSH0 DUP2 SWAP1 POP DUP2 PUSH0 MSTORE PUSH1 0x20 PUSH0 KECCAK256 SWAP1 POP SWAP2 SWAP1 POP JUMP JUMPDEST PUSH0 PUSH1 0x20 PUSH1 0x1F DUP4 ADD DIV SWAP1 POP SWAP2 SWAP1 POP JUMP JUMPDEST PUSH0 DUP3 DUP3 SHL SWAP1 POP SWAP3 SWAP2 POP POP JUMP JUMPDEST PUSH0 PUSH1 0x8 DUP4 MUL PUSH3 0x54A PUSH32 0xFFFFFFFFFFFFFFFFFFFFFFFFFFFFFFFFFFFFFFFFFFFFFFFFFFFFFFFFFFFFFFFF DUP3 PUSH3 0x50D JUMP JUMPDEST PUSH3 0x556 DUP7 DUP4 PUSH3 0x50D JUMP JUMPDEST SWAP6 POP DUP1 NOT DUP5 AND SWAP4 POP DUP1 DUP7 AND DUP5 OR SWAP3 POP POP POP SWAP4 SWAP3 POP POP POP JUMP JUMPDEST PUSH0 DUP2 SWAP1 POP SWAP2 SWAP1 POP JUMP JUMPDEST PUSH0 PUSH3 0x597 PUSH3 0x591 PUSH3 0x58B DUP5 PUSH3 0x32D JUMP JUMPDEST PUSH3 0x56E JUMP JUMPDEST PUSH3 0x32D JUMP JUMPDEST SWAP1 POP SWAP2 SWAP1 POP JUMP JUMPDEST PUSH0 DUP2 SWAP1 POP SWAP2 SWAP1 POP JUMP JUMPDEST PUSH3 0x5B2 DUP4 PUSH3 0x577 JUMP JUMPDEST PUSH3 0x5CA PUSH3 0x5C1 DUP3 PUSH3 0x59E JUMP JUMPDEST DUP5 DUP5 SLOAD PUSH3 0x519 JUMP JUMPDEST DUP3 SSTORE POP POP POP POP JUMP JUMPDEST PUSH0 SWAP1 JUMP JUMPDEST PUSH3 0x5E0 PUSH3 0x5D2 JUMP JUMPDEST PUSH3 0x5ED DUP2 DUP5 DUP5 PUSH3 0x5A7 JUMP JUMPDEST POP POP POP JUMP JUMPDEST JUMPDEST DUP2 DUP2 LT ISZERO PUSH3 0x614 JUMPI PUSH3 0x608 PUSH0 DUP3 PUSH3 0x5D6 JUMP JUMPDEST PUSH1 0x1 DUP2 ADD SWAP1 POP PUSH3 0x5F3 JUMP JUMPDEST POP POP JUMP JUMPDEST PUSH1 0x1F DUP3 GT ISZERO PUSH3 0x663 JUMPI PUSH3 0x62D DUP2 PUSH3 0x4EC JUMP JUMPDEST PUSH3 0x638 DUP5 PUSH3 0x4FE JUMP JUMPDEST DUP2 ADD PUSH1 0x20 DUP6 LT ISZERO PUSH3 0x648 JUMPI DUP2 SWAP1 POP JUMPDEST PUSH3 0x660 PUSH3 0x657 DUP6 PUSH3 0x4FE JUMP JUMPDEST DUP4 ADD DUP3 PUSH3 0x5F2 JUMP JUMPDEST POP POP JUMPDEST POP POP POP JUMP JUMPDEST PUSH0 DUP3 DUP3 SHR SWAP1 POP SWAP3 SWAP2 POP POP JUMP JUMPDEST PUSH0 PUSH3 0x685 PUSH0 NOT DUP5 PUSH1 0x8 MUL PUSH3 0x668 JUMP JUMPDEST NOT DUP1 DUP4 AND SWAP2 POP POP SWAP3 SWAP2 POP POP JUMP JUMPDEST PUSH0 PUSH3 0x69F DUP4 DUP4 PUSH3 0x674 JUMP JUMPDEST SWAP2 POP DUP3 PUSH1 0x2 MUL DUP3 OR SWAP1 POP SWAP3 SWAP2 POP POP JUMP JUMPDEST PUSH3 0x6BA DUP3 PUSH3 0x481 JUMP JUMPDEST PUSH8 0xFFFFFFFFFFFFFFFF DUP2 GT ISZERO PUSH3 0x6D6 JUMPI PUSH3 0x6D5 PUSH3 0x12C JUMP JUMPDEST JUMPDEST PUSH3 0x6E2 DUP3 SLOAD PUSH3 0x4B8 JUMP JUMPDEST PUSH3 0x6EF DUP3 DUP3 DUP6 PUSH3 0x618 JUMP JUMPDEST PUSH0 PUSH1 0x20 SWAP1 POP PUSH1 0x1F DUP4 GT PUSH1 0x1 DUP2 EQ PUSH3 0x725 JUMPI PUSH0 DUP5 ISZERO PUSH3 0x710 JUMPI DUP3 DUP8 ADD MLOAD SWAP1 POP JUMPDEST PUSH3 0x71C DUP6 DUP3 PUSH3 0x692 JUMP JUMPDEST DUP7 SSTORE POP PUSH3 0x78B JUMP JUMPDEST PUSH1 0x1F NOT DUP5 AND PUSH3 0x735 DUP7 PUSH3 0x4EC JUMP JUMPDEST PUSH0 JUMPDEST DUP3 DUP2 LT ISZERO PUSH3 0x75E JUMPI DUP5 DUP10 ADD MLOAD DUP3 SSTORE PUSH1 0x1 DUP3 ADD SWAP2 POP PUSH1 0x20 DUP6 ADD SWAP5 POP PUSH1 0x20 DUP2 ADD SWAP1 POP PUSH3 0x737 JUMP JUMPDEST DUP7 DUP4 LT ISZERO PUSH3 0x77E JUMPI DUP5 DUP10 ADD MLOAD PUSH3 0x77A PUSH1 0x1F DUP10 AND DUP3 PUSH3 0x674 JUMP JUMPDEST DUP4 SSTORE POP JUMPDEST PUSH1 0x1 PUSH1 0x2 DUP9 MUL ADD DUP9 SSTORE POP POP POP JUMPDEST POP POP POP POP POP POP JUMP JUMPDEST PUSH2 0xC0F DUP1 PUSH3 0x7A1 PUSH0 CODECOPY PUSH0 RETURN INVALID PUSH1 0x80 PUSH1 0x40 MSTORE PUSH1 0x4 CALLDATASIZE LT PUSH2 0x49 JUMPI PUSH0 CALLDATALOAD PUSH1 0xE0 SHR DUP1 PUSH4 0x10782F8F EQ PUSH2 0x4D JUMPI DUP1 PUSH4 0x1998AEEF EQ PUSH2 0x77 JUMPI DUP1 PUSH4 0x91F90157 EQ PUSH2 0x81 JUMPI DUP1 PUSH4 0xC2C042CA EQ PUSH2 0xAC JUMPI DUP1 PUSH4 0xFE67A54B EQ PUSH2 0xDB JUMPI JUMPDEST PUSH0 DUP1 REVERT JUMPDEST CALLVALUE DUP1 ISZERO PUSH2 0x58 JUMPI PUSH0 DUP1 REVERT JUMPDEST POP PUSH2 0x61 PUSH2 0xE5 JUMP JUMPDEST PUSH1 0x40 MLOAD PUSH2 0x6E SWAP2 SWAP1 PUSH2 0x6AC JUMP JUMPDEST PUSH1 0x40 MLOAD DUP1 SWAP2 SUB SWAP1 RETURN JUMPDEST PUSH2 0x7F PUSH2 0xEA JUMP JUMPDEST STOP JUMPDEST CALLVALUE DUP1 ISZERO PUSH2 0x8C JUMPI PUSH0 DUP1 REVERT JUMPDEST POP PUSH2 0x95 PUSH2 0x27E JUMP JUMPDEST PUSH1 0x40 MLOAD PUSH2 0xA3 SWAP3 SWAP2 SWAP1 PUSH2 0x71C JUMP JUMPDEST PUSH1 0x40 MLOAD DUP1 SWAP2 SUB SWAP1 RETURN JUMPDEST CALLVALUE DUP1 ISZERO PUSH2 0xB7 JUMPI PUSH0 DUP1 REVERT JUMPDEST POP PUSH2 0xC0 PUSH2 0x2AE JUMP JUMPDEST PUSH1 0x40 MLOAD PUSH2 0xD2 SWAP7 SWAP6 SWAP5 SWAP4 SWAP3 SWAP2 SWAP1 PUSH2 0x7CD JUMP JUMPDEST PUSH1 0x40 MLOAD DUP1 SWAP2 SUB SWAP1 RETURN JUMPDEST PUSH2 0xE3 PUSH2 0x37C JUMP JUMPDEST STOP JUMPDEST PUSH0 SLOAD DUP2 JUMP JUMPDEST PUSH1 0x4 PUSH1 0x5 ADD SLOAD TIMESTAMP LT PUSH2 0x131 JUMPI PUSH1 0x40 MLOAD PUSH32 0x8C379A000000000000000000000000000000000000000000000000000000000 DUP2 MSTORE PUSH1 0x4 ADD PUSH2 0x128 SWAP1 PUSH2 0x8A3 JUMP JUMPDEST PUSH1 0x40 MLOAD DUP1 SWAP2 SUB SWAP1 REVERT JUMPDEST PUSH1 0x4 PUSH1 0x2 ADD SLOAD PUSH1 0x2 PUSH1 0x1 ADD SLOAD PUSH2 0x147 SWAP2 SWAP1 PUSH2 0x8EE JUMP JUMPDEST CALLVALUE GT PUSH2 0x188 JUMPI PUSH1 0x40 MLOAD PUSH32 0x8C379A000000000000000000000000000000000000000000000000000000000 DUP2 MSTORE PUSH1 0x4 ADD PUSH2 0x17F SWAP1 PUSH2 0x979 JUMP JUMPDEST PUSH1 0x40 MLOAD DUP1 SWAP2 SUB SWAP1 REVERT JUMPDEST PUSH1 0x2 PUSH0 ADD PUSH0 SWAP1 SLOAD SWAP1 PUSH2 0x100 EXP SWAP1 DIV PUSH20 0xFFFFFFFFFFFFFFFFFFFFFFFFFFFFFFFFFFFFFFFF AND PUSH20 0xFFFFFFFFFFFFFFFFFFFFFFFFFFFFFFFFFFFFFFFF AND PUSH2 0x8FC PUSH1 0x2 PUSH1 0x1 ADD SLOAD SWAP1 DUP2 ISZERO MUL SWAP1 PUSH1 0x40 MLOAD PUSH0 PUSH1 0x40 MLOAD DUP1 DUP4 SUB DUP2 DUP6 DUP9 DUP9 CALL SWAP4 POP POP POP POP ISZERO DUP1 ISZERO PUSH2 0x1F3 JUMPI RETURNDATASIZE PUSH0 DUP1 RETURNDATACOPY RETURNDATASIZE PUSH0 REVERT JUMPDEST POP CALLVALUE PUSH1 0x2 PUSH1 0x1 ADD DUP2 SWAP1 SSTORE POP CALLER PUSH1 0x2 PUSH0 ADD PUSH0 PUSH2 0x100 EXP DUP2 SLOAD DUP2 PUSH20 0xFFFFFFFFFFFFFFFFFFFFFFFFFFFFFFFFFFFFFFFF MUL NOT AND SWAP1 DUP4 PUSH20 0xFFFFFFFFFFFFFFFFFFFFFFFFFFFFFFFFFFFFFFFF AND MUL OR SWAP1 SSTORE POP PUSH32 0x2263ADECE708E4DD8A02FADBB42F30F747C60D074EF3EC28C2FF208AD625C807 PUSH1 0x2 PUSH1 0x1 ADD SLOAD PUSH1 0x40 MLOAD PUSH2 0x274 SWAP2 SWAP1 PUSH2 0x997 JUMP JUMPDEST PUSH1 0x40 MLOAD DUP1 SWAP2 SUB SWAP1 LOG1 JUMP JUMPDEST PUSH1 0x2 DUP1 PUSH0 ADD PUSH0 SWAP1 SLOAD SWAP1 PUSH2 0x100 EXP SWAP1 DIV PUSH20 0xFFFFFFFFFFFFFFFFFFFFFFFFFFFFFFFFFFFFFFFF AND SWAP1 DUP1 PUSH1 0x1 ADD SLOAD SWAP1 POP DUP3 JUMP JUMPDEST PUSH1 0x4 DUP1 PUSH0 ADD DUP1 SLOAD PUSH2 0x2BE SWAP1 PUSH2 0x9DD JUMP JUMPDEST DUP1 PUSH1 0x1F ADD PUSH1 0x20 DUP1 SWAP2 DIV MUL PUSH1 0x20 ADD PUSH1 0x40 MLOAD SWAP1 DUP2 ADD PUSH1 0x40 MSTORE DUP1 SWAP3 SWAP2 SWAP1 DUP2 DUP2 MSTORE PUSH1 0x20 ADD DUP3 DUP1 SLOAD PUSH2 0x2EA SWAP1 PUSH2 0x9DD JUMP JUMPDEST DUP1 ISZERO PUSH2 0x335 JUMPI DUP1 PUSH1 0x1F LT PUSH2 0x30C JUMPI PUSH2 0x100 DUP1 DUP4 SLOAD DIV MUL DUP4 MSTORE SWAP2 PUSH1 0x20 ADD SWAP2 PUSH2 0x335 JUMP JUMPDEST DUP3 ADD SWAP2 SWAP1 PUSH0 MSTORE PUSH1 0x20 PUSH0 KECCAK256 SWAP1 JUMPDEST DUP2 SLOAD DUP2 MSTORE SWAP1 PUSH1 0x1 ADD SWAP1 PUSH1 0x20 ADD DUP1 DUP4 GT PUSH2 0x318 JUMPI DUP3 SWAP1 SUB PUSH1 0x1F AND DUP3 ADD SWAP2 JUMPDEST POP POP POP POP POP SWAP1 DUP1 PUSH1 0x1 ADD SLOAD SWAP1 DUP1 PUSH1 0x2 ADD SLOAD SWAP1 DUP1 PUSH1 0x3 ADD SLOAD SWAP1 DUP1 PUSH1 0x4 ADD PUSH0 SWAP1 SLOAD SWAP1 PUSH2 0x100 EXP SWAP1 DIV PUSH20 0xFFFFFFFFFFFFFFFFFFFFFFFFFFFFFFFFFFFFFFFF AND SWAP1 DUP1 PUSH1 0x5 ADD SLOAD SWAP1 POP DUP7 JUMP JUMPDEST PUSH1 0x1 PUSH0 SWAP1 SLOAD SWAP1 PUSH2 0x100 EXP SWAP1 DIV PUSH20 0xFFFFFFFFFFFFFFFFFFFFFFFFFFFFFFFFFFFFFFFF AND PUSH20 0xFFFFFFFFFFFFFFFFFFFFFFFFFFFFFFFFFFFFFFFF AND CALLER PUSH20 0xFFFFFFFFFFFFFFFFFFFFFFFFFFFFFFFFFFFFFFFF AND EQ PUSH2 0x40B JUMPI PUSH1 0x40 MLOAD PUSH32 0x8C379A000000000000000000000000000000000000000000000000000000000 DUP2 MSTORE PUSH1 0x4 ADD PUSH2 0x402 SWAP1 PUSH2 0xA7D JUMP JUMPDEST PUSH1 0x40 MLOAD DUP1 SWAP2 SUB SWAP1 REVERT JUMPDEST PUSH1 0x4 PUSH1 0x5 ADD SLOAD TIMESTAMP LT ISZERO PUSH2 0x453 JUMPI PUSH1 0x40 MLOAD PUSH32 0x8C379A000000000000000000000000000000000000000000000000000000000 DUP2 MSTORE PUSH1 0x4 ADD PUSH2 0x44A SWAP1 PUSH2 0xAE5 JUMP JUMPDEST PUSH1 0x40 MLOAD DUP1 SWAP2 SUB SWAP1 REVERT JUMPDEST PUSH0 PUSH1 0x1 SWAP1 POP PUSH1 0x4 PUSH1 0x3 ADD SLOAD PUSH1 0x2 PUSH1 0x1 ADD SLOAD SLT ISZERO PUSH2 0x4FF JUMPI PUSH1 0x2 PUSH0 ADD PUSH0 SWAP1 SLOAD SWAP1 PUSH2 0x100 EXP SWAP1 DIV PUSH20 0xFFFFFFFFFFFFFFFFFFFFFFFFFFFFFFFFFFFFFFFF AND PUSH20 0xFFFFFFFFFFFFFFFFFFFFFFFFFFFFFFFFFFFFFFFF AND PUSH2 0x8FC PUSH1 0x2 PUSH1 0x1 ADD SLOAD SWAP1 DUP2 ISZERO MUL SWAP1 PUSH1 0x40 MLOAD PUSH0 PUSH1 0x40 MLOAD DUP1 DUP4 SUB DUP2 DUP6 DUP9 DUP9 CALL SWAP4 POP POP POP POP ISZERO DUP1 ISZERO PUSH2 0x4D5 JUMPI RETURNDATASIZE PUSH0 DUP1 RETURNDATACOPY RETURNDATASIZE PUSH0 REVERT JUMPDEST POP PUSH2 0x4F7 PUSH1 0x40 MLOAD DUP1 PUSH1 0x80 ADD PUSH1 0x40 MSTORE DUP1 PUSH1 0x48 DUP2 MSTORE PUSH1 0x20 ADD PUSH2 0xB92 PUSH1 0x48 SWAP2 CODECOPY PUSH2 0x5AD JUMP JUMPDEST PUSH0 SWAP1 POP PUSH2 0x56C JUMP JUMPDEST PUSH1 0x4 DUP1 ADD PUSH0 SWAP1 SLOAD SWAP1 PUSH2 0x100 EXP SWAP1 DIV PUSH20 0xFFFFFFFFFFFFFFFFFFFFFFFFFFFFFFFFFFFFFFFF AND PUSH20 0xFFFFFFFFFFFFFFFFFFFFFFFFFFFFFFFFFFFFFFFF AND PUSH2 0x8FC PUSH1 0x2 PUSH1 0x1 ADD SLOAD SWAP1 DUP2 ISZERO MUL SWAP1 PUSH1 0x40 MLOAD PUSH0 PUSH1 0x40 MLOAD DUP1 DUP4 SUB DUP2 DUP6 DUP9 DUP9 CALL SWAP4 POP POP POP POP ISZERO DUP1 ISZERO PUSH2 0x56A JUMPI RETURNDATASIZE PUSH0 DUP1 RETURNDATACOPY RETURNDATASIZE PUSH0 REVERT JUMPDEST POP JUMPDEST PUSH32 0x8ACA94DC634F1E3CC99A82ED1A8B36272F826CE34503E5456680D4E92236C9D6 DUP2 PUSH1 0x2 PUSH1 0x1 ADD SLOAD PUSH1 0x40 MLOAD PUSH2 0x5A2 SWAP3 SWAP2 SWAP1 PUSH2 0xB1D JUMP JUMPDEST PUSH1 0x40 MLOAD DUP1 SWAP2 SUB SWAP1 LOG1 POP JUMP JUMPDEST PUSH2 0x643 DUP2 PUSH1 0x40 MLOAD PUSH1 0x24 ADD PUSH2 0x5C1 SWAP2 SWAP1 PUSH2 0xB44 JUMP JUMPDEST PUSH1 0x40 MLOAD PUSH1 0x20 DUP2 DUP4 SUB SUB DUP2 MSTORE SWAP1 PUSH1 0x40 MSTORE PUSH32 0x41304FAC00000000000000000000000000000000000000000000000000000000 PUSH28 0xFFFFFFFFFFFFFFFFFFFFFFFFFFFFFFFFFFFFFFFFFFFFFFFFFFFFFFFF NOT AND PUSH1 0x20 DUP3 ADD DUP1 MLOAD PUSH28 0xFFFFFFFFFFFFFFFFFFFFFFFFFFFFFFFFFFFFFFFFFFFFFFFFFFFFFFFF DUP4 DUP2 DUP4 AND OR DUP4 MSTORE POP POP POP POP PUSH2 0x646 JUMP JUMPDEST POP JUMP JUMPDEST PUSH2 0x65D DUP2 PUSH2 0x655 PUSH2 0x660 PUSH2 0x67F JUMP JUMPDEST PUSH4 0xFFFFFFFF AND JUMP JUMPDEST POP JUMP JUMPDEST PUSH0 PUSH11 0x636F6E736F6C652E6C6F67 SWAP1 POP PUSH0 DUP1 DUP4 MLOAD PUSH1 0x20 DUP6 ADD DUP5 GAS STATICCALL POP POP POP JUMP JUMPDEST PUSH2 0x68A DUP2 SWAP1 POP SWAP2 SWAP1 POP JUMP JUMPDEST PUSH2 0x692 PUSH2 0xB64 JUMP JUMPDEST JUMP JUMPDEST PUSH0 DUP2 SWAP1 POP SWAP2 SWAP1 POP JUMP JUMPDEST PUSH2 0x6A6 DUP2 PUSH2 0x694 JUMP JUMPDEST DUP3 MSTORE POP POP JUMP JUMPDEST PUSH0 PUSH1 0x20 DUP3 ADD SWAP1 POP PUSH2 0x6BF PUSH0 DUP4 ADD DUP5 PUSH2 0x69D JUMP JUMPDEST SWAP3 SWAP2 POP POP JUMP JUMPDEST PUSH0 PUSH20 0xFFFFFFFFFFFFFFFFFFFFFFFFFFFFFFFFFFFFFFFF DUP3 AND SWAP1 POP SWAP2 SWAP1 POP JUMP JUMPDEST PUSH0 PUSH2 0x6EE DUP3 PUSH2 0x6C5 JUMP JUMPDEST SWAP1 POP SWAP2 SWAP1 POP JUMP JUMPDEST PUSH2 0x6FE DUP2 PUSH2 0x6E4 JUMP JUMPDEST DUP3 MSTORE POP POP JUMP JUMPDEST PUSH0 DUP2 SWAP1 POP SWAP2 SWAP1 POP JUMP JUMPDEST PUSH2 0x716 DUP2 PUSH2 0x704 JUMP JUMPDEST DUP3 MSTORE POP POP JUMP JUMPDEST PUSH0 PUSH1 0x40 DUP3 ADD SWAP1 POP PUSH2 0x72F PUSH0 DUP4 ADD DUP6 PUSH2 0x6F5 JUMP JUMPDEST PUSH2 0x73C PUSH1 0x20 DUP4 ADD DUP5 PUSH2 0x70D JUMP JUMPDEST SWAP4 SWAP3 POP POP POP JUMP JUMPDEST PUSH0 DUP2 MLOAD SWAP1 POP SWAP2 SWAP1 POP JUMP JUMPDEST PUSH0 DUP3 DUP3 MSTORE PUSH1 0x20 DUP3 ADD SWAP1 POP SWAP3 SWAP2 POP POP JUMP JUMPDEST PUSH0 JUMPDEST DUP4 DUP2 LT ISZERO PUSH2 0x77A JUMPI DUP1 DUP3 ADD MLOAD DUP2 DUP5 ADD MSTORE PUSH1 0x20 DUP2 ADD SWAP1 POP PUSH2 0x75F JUMP JUMPDEST PUSH0 DUP5 DUP5 ADD MSTORE POP POP POP POP JUMP JUMPDEST PUSH0 PUSH1 0x1F NOT PUSH1 0x1F DUP4 ADD AND SWAP1 POP SWAP2 SWAP1 POP JUMP JUMPDEST PUSH0 PUSH2 0x79F DUP3 PUSH2 0x743 JUMP JUMPDEST PUSH2 0x7A9 DUP2 DUP6 PUSH2 0x74D JUMP JUMPDEST SWAP4 POP PUSH2 0x7B9 DUP2 DUP6 PUSH1 0x20 DUP7 ADD PUSH2 0x75D JUMP JUMPDEST PUSH2 0x7C2 DUP2 PUSH2 0x785 JUMP JUMPDEST DUP5 ADD SWAP2 POP POP SWAP3 SWAP2 POP POP JUMP JUMPDEST PUSH0 PUSH1 0xC0 DUP3 ADD SWAP1 POP DUP2 DUP2 SUB PUSH0 DUP4 ADD MSTORE PUSH2 0x7E5 DUP2 DUP10 PUSH2 0x795 JUMP JUMPDEST SWAP1 POP PUSH2 0x7F4 PUSH1 0x20 DUP4 ADD DUP9 PUSH2 0x70D JUMP JUMPDEST PUSH2 0x801 PUSH1 0x40 DUP4 ADD DUP8 PUSH2 0x70D JUMP JUMPDEST PUSH2 0x80E PUSH1 0x60 DUP4 ADD DUP7 PUSH2 0x70D JUMP JUMPDEST PUSH2 0x81B PUSH1 0x80 DUP4 ADD DUP6 PUSH2 0x6F5 JUMP JUMPDEST PUSH2 0x828 PUSH1 0xA0 DUP4 ADD DUP5 PUSH2 0x69D JUMP JUMPDEST SWAP8 SWAP7 POP POP POP POP POP POP POP JUMP JUMPDEST PUSH32 0x41756374696F6E20697320656E6465642C20796F752063616E27742062696420 PUSH0 DUP3 ADD MSTORE PUSH32 0x616E796D6F726500000000000000000000000000000000000000000000000000 PUSH1 0x20 DUP3 ADD MSTORE POP JUMP JUMPDEST PUSH0 PUSH2 0x88D PUSH1 0x27 DUP4 PUSH2 0x74D JUMP JUMPDEST SWAP2 POP PUSH2 0x898 DUP3 PUSH2 0x833 JUMP JUMPDEST PUSH1 0x40 DUP3 ADD SWAP1 POP SWAP2 SWAP1 POP JUMP JUMPDEST PUSH0 PUSH1 0x20 DUP3 ADD SWAP1 POP DUP2 DUP2 SUB PUSH0 DUP4 ADD MSTORE PUSH2 0x8BA DUP2 PUSH2 0x881 JUMP JUMPDEST SWAP1 POP SWAP2 SWAP1 POP JUMP JUMPDEST PUSH32 0x4E487B7100000000000000000000000000000000000000000000000000000000 PUSH0 MSTORE PUSH1 0x11 PUSH1 0x4 MSTORE PUSH1 0x24 PUSH0 REVERT JUMPDEST PUSH0 PUSH2 0x8F8 DUP3 PUSH2 0x704 JUMP JUMPDEST SWAP2 POP PUSH2 0x903 DUP4 PUSH2 0x704 JUMP JUMPDEST SWAP3 POP DUP3 DUP3 ADD SWAP1 POP DUP3 DUP2 SLT ISZERO PUSH0 DUP4 SLT AND DUP4 DUP3 SLT PUSH0 DUP5 SLT ISZERO AND OR ISZERO PUSH2 0x929 JUMPI PUSH2 0x928 PUSH2 0x8C1 JUMP JUMPDEST JUMPDEST SWAP3 SWAP2 POP POP JUMP JUMPDEST PUSH32 0x596F75206469646E27742062696420656E6F7567682021000000000000000000 PUSH0 DUP3 ADD MSTORE POP JUMP JUMPDEST PUSH0 PUSH2 0x963 PUSH1 0x17 DUP4 PUSH2 0x74D JUMP JUMPDEST SWAP2 POP PUSH2 0x96E DUP3 PUSH2 0x92F JUMP JUMPDEST PUSH1 0x20 DUP3 ADD SWAP1 POP SWAP2 SWAP1 POP JUMP JUMPDEST PUSH0 PUSH1 0x20 DUP3 ADD SWAP1 POP DUP2 DUP2 SUB PUSH0 DUP4 ADD MSTORE PUSH2 0x990 DUP2 PUSH2 0x957 JUMP JUMPDEST SWAP1 POP SWAP2 SWAP1 POP JUMP JUMPDEST PUSH0 PUSH1 0x20 DUP3 ADD SWAP1 POP PUSH2 0x9AA PUSH0 DUP4 ADD DUP5 PUSH2 0x70D JUMP JUMPDEST SWAP3 SWAP2 POP POP JUMP JUMPDEST PUSH32 0x4E487B7100000000000000000000000000000000000000000000000000000000 PUSH0 MSTORE PUSH1 0x22 PUSH1 0x4 MSTORE PUSH1 0x24 PUSH0 REVERT JUMPDEST PUSH0 PUSH1 0x2 DUP3 DIV SWAP1 POP PUSH1 0x1 DUP3 AND DUP1 PUSH2 0x9F4 JUMPI PUSH1 0x7F DUP3 AND SWAP2 POP JUMPDEST PUSH1 0x20 DUP3 LT DUP2 SUB PUSH2 0xA07 JUMPI PUSH2 0xA06 PUSH2 0x9B0 JUMP JUMPDEST JUMPDEST POP SWAP2 SWAP1 POP JUMP JUMPDEST PUSH32 0x596F75277265206E6F74207468652061756374696F6E206F776E65722C20796F PUSH0 DUP3 ADD MSTORE PUSH32 0x752063616E277420656E64206974000000000000000000000000000000000000 PUSH1 0x20 DUP3 ADD MSTORE POP JUMP JUMPDEST PUSH0 PUSH2 0xA67 PUSH1 0x2E DUP4 PUSH2 0x74D JUMP JUMPDEST SWAP2 POP PUSH2 0xA72 DUP3 PUSH2 0xA0D JUMP JUMPDEST PUSH1 0x40 DUP3 ADD SWAP1 POP SWAP2 SWAP1 POP JUMP JUMPDEST PUSH0 PUSH1 0x20 DUP3 ADD SWAP1 POP DUP2 DUP2 SUB PUSH0 DUP4 ADD MSTORE PUSH2 0xA94 DUP2 PUSH2 0xA5B JUMP JUMPDEST SWAP1 POP SWAP2 SWAP1 POP JUMP JUMPDEST PUSH32 0x41756374696F6E206E6F742079657420656E6465640000000000000000000000 PUSH0 DUP3 ADD MSTORE POP JUMP JUMPDEST PUSH0 PUSH2 0xACF PUSH1 0x15 DUP4 PUSH2 0x74D JUMP JUMPDEST SWAP2 POP PUSH2 0xADA DUP3 PUSH2 0xA9B JUMP JUMPDEST PUSH1 0x20 DUP3 ADD SWAP1 POP SWAP2 SWAP1 POP JUMP JUMPDEST PUSH0 PUSH1 0x20 DUP3 ADD SWAP1 POP DUP2 DUP2 SUB PUSH0 DUP4 ADD MSTORE PUSH2 0xAFC DUP2 PUSH2 0xAC3 JUMP JUMPDEST SWAP1 POP SWAP2 SWAP1 POP JUMP JUMPDEST PUSH0 DUP2 ISZERO ISZERO SWAP1 POP SWAP2 SWAP1 POP JUMP JUMPDEST PUSH2 0xB17 DUP2 PUSH2 0xB03 JUMP JUMPDEST DUP3 MSTORE POP POP JUMP JUMPDEST PUSH0 PUSH1 0x40 DUP3 ADD SWAP1 POP PUSH2 0xB30 PUSH0 DUP4 ADD DUP6 PUSH2 0xB0E JUMP JUMPDEST PUSH2 0xB3D PUSH1 0x20 DUP4 ADD DUP5 PUSH2 0x70D JUMP JUMPDEST SWAP4 SWAP3 POP POP POP JUMP JUMPDEST PUSH0 PUSH1 0x20 DUP3 ADD SWAP1 POP DUP2 DUP2 SUB PUSH0 DUP4 ADD MSTORE PUSH2 0xB5C DUP2 DUP5 PUSH2 0x795 JUMP JUMPDEST SWAP1 POP SWAP3 SWAP2 POP POP JUMP JUMPDEST PUSH32 0x4E487B7100000000000000000000000000000000000000000000000000000000 PUSH0 MSTORE PUSH1 0x51 PUSH1 0x4 MSTORE PUSH1 0x24 PUSH0 REVERT INVALID SLOAD PUSH9 0x652061756374696F6E KECCAK256 PUSH9 0x6173276E7420726561 PUSH4 0x68207468 PUSH6 0x207265736572 PUSH23 0x652070726963652C207468652062696464657220686173 KECCAK256 PUSH3 0x65656E KECCAK256 PUSH19 0x6566756E646564A26469706673582212206EE5 PUSH22 0x992E6D391D1C2AD7BAF57AA3B2942D43FF53E782522F SWAP13 0x25 SWAP6 SUB 0xB3 EXTCODECOPY LT PUSH5 0x736F6C6343 STOP ADDMOD OR STOP CALLER LOG2 PUSH5 0x6970667358 0x22 SLT KECCAK256 DUP3 DUP4 0x49 0xAF GASLIMIT PUSH9 0xEF736F9696553C63B0 SIGNEXTEND PUSH5 0x6961A83578 0xD6 SGT 0x28 SWAP12 CALL 0xE2 LOG4 0xD7 SLT EXTCODESIZE PUSH5 0x736F6C6343 STOP ADDMOD OR STOP CALLER "
		},
		"gasEstimates": {
			"creation": {
				"codeDepositCost": "1832800",
				"executionCost": "infinite",
				"totalCost": "infinite"
			},
			"external": {
				"logAuctions()": "infinite",
				"startAuction()": "infinite"
			}
		},
		"methodIdentifiers": {
			"logAuctions()": "9fae5ec9",
			"startAuction()": "6b64c769"
		}
	},
	"abi": [
		{
			"inputs": [
				{
					"components": [
						{
							"internalType": "string",
							"name": "itemName",
							"type": "string"
						},
						{
							"internalType": "int256",
							"name": "auctionStartValue",
							"type": "int256"
						},
						{
							"internalType": "int256",
							"name": "auctionStep",
							"type": "int256"
						},
						{
							"internalType": "int256",
							"name": "auctionReservePrice",
							"type": "int256"
						},
						{
							"internalType": "address",
							"name": "ownerAddress",
							"type": "address"
						},
						{
							"internalType": "uint256",
							"name": "auctionEndDate",
							"type": "uint256"
						}
					],
					"internalType": "struct AuctionItem[]",
					"name": "_auctionItems",
					"type": "tuple[]"
				}
			],
			"stateMutability": "nonpayable",
			"type": "constructor"
		},
		{
			"anonymous": false,
			"inputs": [
				{
					"indexed": false,
					"internalType": "string",
					"name": "itemName",
					"type": "string"
				},
				{
					"indexed": false,
					"internalType": "int256",
					"name": "auctionStartPrice",
					"type": "int256"
				},
				{
					"indexed": false,
					"internalType": "int256",
					"name": "auctionStepPrice",
					"type": "int256"
				}
			],
			"name": "StartAuctionForItem",
			"type": "event"
		},
		{
			"inputs": [],
			"name": "logAuctions",
			"outputs": [],
			"stateMutability": "view",
			"type": "function"
		},
		{
			"inputs": [],
			"name": "startAuction",
			"outputs": [],
			"stateMutability": "nonpayable",
			"type": "function"
		}
	]
}